:2000000080002020552F0000552700005527000000000000000000000000000000000000A4
:2000200000000000000000000000000055270000000000000000000055270000552700004C
:20004000552700003F0D000055270000552700004E1500004DA9000055270000552700008F
:20006000000000005527000055270000000000000000000055270000552700005527000014
:20008000552700005527000055270000552700005527000055270000000000000000000078
:2000A0005527000055270000000000000000000055270000000000005527000055270000D4
:2000C000000000000000000000000000000000000000000000000000000000000000000020
:2000E000000000000000000000000000000000000000000000000000000000000000000000
:200100000000000000000000000001C001C001C001C001C001C001C0008000800080008098
:200120000080008000800000000000000000018003C003C0018000000000000000000000B7
:200140000000000000001CE01CE01EF00E7007380318010800840000000000000000000034
:2001600000000000000000000000000000000000000000000000000000000000000000007F
:20018000000000000000000000000000102010201020102010207FFE7FFE0810081008102D
:2001A00008100810081008107FFE7FFE0408040804080408040800000000000000000000A9
:2001C00000000000000000000100010007C0196031103118391839180138017001E003C063
:2001E00007800F001D0039003100311C311C310C110C0D1807E001000100010000000000DF
:20020000000000000000000000000000101C183608630C63046304630263026301631D363B
:20022000379C2280638063406340632063206330221036181C0800000000000000000000E3
:2002400000000000000000000000000000F00198018C018C018C018C008C00CC00783E18BB
:20026000081C083608320463046304C303C343834306268E1C780000000000000000000030
:20028000000000000000001C003C003C003000300010000C00060000000000000000000048
:2002A00000000000000000000000000000000000000000000000000000000000000000003E
:2002C00000000000000040002000100008000C000400060003000300030001800180018004
:2002E00001800180018001800180030003000300060006000C0008001000200040000000E0
:20030000000000000000000200040008001000300020006000C000C000C00180018001804C
:200320000180018001800180018000C000C000C000600060003000100008000400020000EA
:20034000000000000000000000000000000000000100038003800100711C793C3D7807C0D7
:20036000010007C03D78793C711C0100038003800180000000000000000000000000000036
:20038000000000000000000000000000000000000000010001000100010001000100010056
:2003A0007FFC010001000100010001000100010000000000000000000000000000000000BB
:2003C00000000000000000000000000000000000000000000000000000000000000000001D
:2003E00000000000000000000000000000000000001C003C003C003000300010000C0006E7
:200400000000000000000000000000000000000000000000000000000000000000000000DC
:200420007FFE0000000000000000000000000000000000000000000000000000000000003F
:2004400000000000000000000000000000000000000000000000000000000000000000009C
:2004600000000000000000000000000000000018003C003C001800000000000000000000D4
:2004800000000000000040006000200030001000180008000C000400060002000300010020
:2004A0000180008000C00040006000200030001000180008000C0004000600020000000043
:2004C00000000000000000000000000007C00C601830301830182018600C600C600C600C29
:2004E000600C600C600C600C600C20183018301818300C6007C0000000000000000000009D
:200500000000000000000000000000000100018001F80180018001800180018001800180D9
:2005200001800180018001800180018001800180018003C01FF80000000000000000000058
:2005400000000000000000000000000007E01C10180830043004300C300C30001800080038
:200560000400020001000080004020202010200830041FFC1FFC00000000000000000000B2
:2005800000000000000000000000000003E00E180C0C180C180C180C18000C00060003C0E1
:2005A0000E001800100030003000300C300C100C180C0C1803E000000000000000000000E6
:2005C0000000000000000000000000000C000E000E000F000E800E800E400E600E200E10C0
:2005E0000E100E080E040E047FFE0E000E000E000E000E000E007FC0000000000000000093
:200600000000000000000000000000003FF03FF00010001000100008000807C80C28181809
:2006200010083000300030003000300C300C180418040C0803F0000000000000000000002B
:200640000000000000000000000000000F8010C030203010001800180008000C0F8C186C48
:20066000303C601C600C600C600C600C601820183030186007C00000000000000000000093
:200680000000000000000000000000003FF83FF8101C080C0804040404000200020001008F
:2006A0000100010000800080008000C000C000C000C000C000C00000000000000000000038
:2006C00000000000000000000000000007E00C301818300C300C300C301C1838087007E018
:2006E00007B00E181C0C38063006300630063006180C0C1803E000000000000000000000B4
:2007000000000000000000000000000003E00418080C180C10063006300630063006380676
:200720003C0C361831F030001800180018000C0C060C030C01F00000000000000000000060
:200740000000000000000000000000000000000000000000000000000000018003C003C092
:200760000180000000000000000000000000018003C003C001800000000000000000000070
:20078000000000000000000000000000000000000000000000000000000000C000C00000D9
:2007A00000000000000000000000000000000000000000C000C00080008000400040000039
:2007C00000000000000000000000200010000800040006000300018000C0006000300018EB
:2007E000000C00180030006000C001800300060004000800100020000000000000000000BF
:2008000000000000000000000000000000000000000000000000000000007FFE000000005B
:200820000000000000007FFE0000000000000000000000000000000000000000000000003B
:20084000000000000000000000000004000800100020006000C00180030006000C0018008E
:20086000300018000C0006000300018000C00060002000100008000400000000000000003E
:200880000000000000000000000007C0183030086008600C601C601C601C30001C00060077
:2008A0000100008000800080008000000000018003C003C0018000000000000000000000AF
:2008C00000000000000000000000000007C01860301020182F0C4D8C4C864CC64CC64C66A5
:2008E000446644662666266615661CCC400C20083018183007C0000000000000000000005E
:2009000000000000000000000000010001C001C001C001400360032003200320063006103A
:20092000061006100FF80C080C080C080C0C1804180418067C1F000000000000000000003F
:2009400000000000000000000000000007FE1C183818301830183018301818180C1807F89B
:2009600018183018201860186018601860186018301818180FFE00000000000000000000EA
:2009800000000000000000000000000027C0386030102018400C400C0004000600060006B2
:2009A00000060006000600060006400C400C200C3018183007C000000000000000000000FE
:2009C00000000000000000000000000003FE0E181818301830183018601860186018601808
:2009E0006018601860186018601830183018101818180E1803FE0000000000000000000090
:200A00000000000000000000000000003FFE30182018601840180018081808180C180FF8C6
:200A20000C180818081800180018001840184018201830183FFE000000000000000000009D
:200A40000000000000000000000000007FFE70184018C018801800181018101818181FF81A
:200A60001818101810180018001800180018001800180018007E00000000000000000000D0
:200A800000000000000000000000000013C01C7010101018200C200C000400060006000641
:200AA00000060006FC0630063006300C300C30183018083007C000000000000000000000B5
:200AC0000000000000000000000000007E3F180C180C180C180C180C180C180C180C180C15
:200AE0001FFC180C180C180C180C180C180C180C180C180C7E3F00000000000000000000DA
:200B00000000000000000000000000001FF801800180018001800180018001800180018035
:200B200001800180018001800180018001800180018001801FF80000000000000000000094
:200B40000000000000000000000000007FE006000600060006000600060006000600060000
:200B6000060006000600060006000600060006000600060006000600060E030E018E00FC7D
:200B80000000000000000000000000007C7E1818081804180618021801180198019801D893
:200BA00003B80338071806180E180C181C18181830183018FC7E000000000000000000004A
:200BC000000000000000000000000000007E001800180018001800180018001800180018BF
:200BE00000180018001800180018001840184018201830183FFE00000000000000000000F8
:200C0000000000000000000000000000F81F381C381C381C3C1C3434343434343634327421
:200C2000326432643264316431C431C431C430C430C43084FC9F0000000000000000000047
:200C40000000000000000000000000007C1F101C103C103410341074106410E410C411C464
:200C6000118413841304170416041E041C041C041C041804181F0000000000000000000027
:200C800000000000000000000000000003C00C3018181008300C300C6006600660066006FD
:200CA00060066006600660066006200C300C100818180C3003C00000000000000000000087
:200CC0000000000000000000000000000FFE181830186018601860186018601830181818BF
:200CE0000FF8001800180018001800180018001800180018007E0000000000000000000097
:200D000000000000000000000000000003C00C301818100C300C200C600660066006600688
:200D20006006600660066006600661E4332C321C16180E3007C04C007C0038000000000090
:200D400000000000000000000000000007FE1C183818301830183018301818180C1807F897
:200D6000039803180718061806180E180C180C181C181818787E000000000000000000009A
:200D800000000000000000000000000027E038303018200C200C000C000C0018007803E0B9
:200DA0000F801E00380070006000600460046008301818380FC800000000000000000000DF
:200DC0000000000000000000000000003FFC218C618441824182018001800180018001803B
:200DE000018001800180018001800180018001800180018007E00000000000000000000002
:200E00000000000000000000000000007C3F100C100C100C100C100C100C100C100C100C1B
:200E2000100C100C100C100C100C100C100C100C0808043803E000000000000000000000A3
:200E4000000000000000000000000000F83E201820182018103010301030103008600860E4
:200E600008600CE004C004C004C003800380038003800100010000000000000000000000C4
:200E8000000000000000000000000000F3DF618621862186218C210C238C138C138C138CE5
:200EA000134C125816580E580E380E380E380C30041004100410000000000000000000004B
:200EC0000000000000000000000000003E7E08180838043004300270026001E001C001C057
:200EE0000180038003400740062006200C100C10180818087C3E00000000000000000000E6
:200F00000000000000000000000000007C7E101C1018081808300C3004700460026002C0F3
:200F200002C001C00180018001800180018001800180018007E0000000000000000000003F
:200F40000000000000000000000000003FF8181818080C040E0406000700030003800180D4
:200F600001C000C000E000600070003020382018101C180C1FFE0000000000000000000013
:200F80000000000000003FC000400040004000400040004000400040004000400040004052
:200FA00000400040004000400040004000400040004000400040004000403FC000000000F2
:200FC0000000000000000000000000080018001800100030002000600060004000C0008039
:200FE000018001800100030002000600060004000C00080018001800100030002000000035
:2010000000000000000003FC020002000200020002000200020002000200020002000200B9
:20102000020002000200020002000200020002000200020002000200020003FC0000000097
:20104000000000000000078006C008201010000000000000000000000000000000000000FB
:20106000000000000000000000000000000000000000000000000000000000000000000070
:20108000000000000000000000000000000000000000000000000000000000000000000050
:2010A000000000000000000000000000000000000000000000000000000000000000FFFF32
:2010C000000000000000007800C001000000000000000000000000000000000000000000D7
:2010E0000000000000000000000000000000000000000000000000000000000000000000F0
:20110000000000000000000000000000000000000000000000000000000003F006180C0CA6
:201120000C0C0C000F800C700C1C0C0C0C060C064C064F0C38F8000000000000000000003F
:20114000000000000000000000000010001E0018001800180018001800180F1818D8303852
:20116000603860186018601860186018601820183038187807C80000000000000000000008
:20118000000000000000000000000000000000000000000000000000000007C00C701818DC
:2011A0001818180C000C000C000C000C200C20181018083007C00000000000000000000020
:2011C0000000000000000000000010001E001800180018001800180018001BE01C301818DA
:2011E0001818180C180C180C180C180C180C18081C187A3009E00000000000000000000000
:20120000000000000000000000000000000000000000000000000000000007C00C3018189B
:201220001008300C300C3FFC000C000C000C20181018187007C00000000000000000000010
:201240000000000000000000000000003E00C380C080C0C000C000C000C01FFC00C000C072
:2012600000C000C000C000C000C000C000C000C000C000C00FF800000000000000000000E7
:20128000000000000000000000000000000000000000000000000000000077C06C30181053
:2012A00018181818181818100C3007F0001800180FF03FF07008600C600C600C38380FE0CA
:2012C000000000000000000000000010001E0018001800180018001800180F9818D8303851
:2012E0003018301830183018301830183018301830183018FC7E00000000000000000000A4
:20130000000000000000000000000000038003800380000000000000010001F80180018048
:2013200001800180018001800180018001800180018001801FF8000000000000000000008C
:2013400000000000000000000000000038003800380000000000000010001F801800180006
:2013600018001800180018001800180018001800180018001800180018000C18061803F000
:20138000000000000000000000000010001E0018001800180018001800183E180C180618F7
:2013A00003180118019801D80338071806180C181C1818187C7E000000000000000000008D
:2013C00000000000000000000000010001F80180018001800180018001800180018001808A
:2013E00001800180018001800180018001800180018001801FF800000000000000000000CC
:2014000000000000000000000000000000000000000000000000000000081CEE339C318C2E
:20142000318C318C318C318C318C318C318C318C318C318C7BDE00000000000000000000F1
:2014400000000000000000000000000000000000000000000000000000100F1E18D83038F7
:201460003018301830183018301830183018301830183018FC7E0000000000000000000022
:20148000000000000000000000000000000000000000000000000000000007C01C703010B9
:2014A0003018600C600C600C600C600C600C30183018183007C000000000000000000000BD
:2014C00000000000000000000000000000000000000000000000000000100F9E1858303877
:2014E000201860186018601860186018601830183038187807980018001800180018007E27
:20150000000000000000000000000000000000000000000000000000000023C03C3038182C
:201520003018300C300C300C300C300C300C300838183C3033E03000300030003000FC0038
:2015400000000000000000000000000000000000000000000000000000603C7E66606160EA
:2015600000E000E00060006000600060006000600060006007FE00000000000000000000A6
:20158000000000000000000000000000000000000000000000000000000027E03830301894
:2015A00020180018007003E00F801C0030043004300C181C0FEC000000000000000000000A
:2015C0000000000000000000000000000000000000800080008000C000E01FFC00C000C050
:2015E00000C000C000C000C000C000C000C020C020C011800F00000000000000000000004B
:2016000000000000000000000000000000000000000000000000000020103C1E30183018B0
:20162000301830183018301830183018301830183818F43013E00000000000000000000003
:2016400000000000000000000000000000000000000000000000000000003C7E1818081880
:2016600008380430043002700260026001E001C001C000C0008000000000000000000000E9
:201680000000000000000000000000000000000000000000000000000000F7DF638E230C54
:2016A000238C238C13981398165816580E700E700E700420042000000000000000000000D8
:2016C00000000000000000000000000000000000000000000000000000003EFC08700470E4
:2016E00004E002C001C003800380074006600C200C1018187E3E000000000000000000009C
:2017000000000000000000000000000000000000000000000000000000007C7E181808187F
:201720000830083004300460046002C002C002C0018001800180008000800080004C003C6C
:2017400000000000000000000000000000000000000000000000000000001FFC0C0C0E0444
:20176000060403000380018000C000E0207020303038181C1FFC0000000000000000000021
:201780000000000000003000080004000400040004000400040004000400040004000200E7
:2017A000018002000400040004000400040004000400040004000400040008003000000042
:2017C0000100010001000100010001000100010001000100010001000100010001000100F9
:2017E0000100010001000100010001000100010001000100010001000100010001000100D9
:20180000000000000000000C0010002000200020002000200020002000200020002000402C
:2018200001800040002000200020002000200020002000200020002000200010000C00006B
:201840000000003800C44086610222001C0000000000000000000000000000000000000025
:20186000000000000000000000000000000000000000000000000000000000000000000068
:20188000000000000000000000000000000000000000000000000000000000000000000048
:2018A0000000000000000000000000000000000000000000000000000060006000600060A8
:2018C000006000600060004000200020002000000000000000600060006000000000000028
:2018E000000000000660066003300198008800440000000000000000000000000000000084
:2019000000000000000000000000000000000000000000000000000002100210021002107F
:2019200007FE07FE0208010801080108010807FE07FE010401040104010400000000000051
:201940000000000000000040004001F00358034C03CC004C0058007000E001C001C00340E4
:20196000034C035C034C014800F00040004000000000000000000000010E010A0091009175
:20198000009100510051003A03AE02A00450045004480448044802840384000000000000EE
:2019A00000000000000000000038006C006C006C006C006C002C0798011C011A0133013368
:2019C000016300E308C309C6073C00000000000000000000000C001C00100010000800048F
:2019E0000000000000000000000000000000000000000000000000000000000000000000E7
:201A000000000000040002000100008000800040004000200020002000200020002000205F
:201A20000040004000800080010002000400000000000000000200040008001000100020D1
:201A4000002000400040004000400040004000400020002000100010000800040002000038
:201A6000000000000000000000000000004000C000400C460F4E01D001F00F5E0C460040B6
:201A8000004000400000000000000000000000000000000000000000000000000000004086
:201AA00000400040004000400FFE00400040004000400040000000000000000000000000D9
:201AC000000000000000000000000000000000000000000000000000000000000000000006
:201AE00000000000000C001C00100010000800040000000000000000000000000000000092
:201B0000000000000000000007FE00000000000000000000000000000000000000000000C0
:201B20000000000000000000000000000000000000000000000000000000000000000000A5
:201B400000000000001C001C001C0000000000000000000004000600020003000100010020
:201B600000800080004000400060002000200010001000080008000C0004000600020000FD
:201B80000000000000000000000000F00198030C030C06060606060606060606060606064A
:201BA0000606030C030C019800F0000000000000000000000000000000000040007C006056
:201BC00000600060006000600060006000600060006000600060006003FC00000000000086
:201BE0000000000000000000000000F8018403020306030603000100018000C0006000208C
:201C0000001002080204020603FE00000000000000000000000000000000007800C60186D6
:201C200001860180018000C00070018001000300030003060306018600F8000000000000D2
:201C4000000000000000000000000180018001C001A001A0019001880188018401820FFEC7
:201C6000018001800180018007E00000000000000000000000000000000003FC0004000472
:201C800000040004000400F4018C030403000300030603060182018400F800000000000098
:201CA0000000000000000000000001E00318030C000C0004000601E60316060E06060606D7
:201CC00006060604020C031800F00000000000000000000000000000000007F8060C0204BE
:201CE00001040100010000800080004000400040006000600060006000600000000000003D
:201D00000000000000000000000001F8030C060606060606020C031C00F001C8030C060696
:201D2000060606060606030C01F00000000000000000000000000000000000F0010C030C73
:201D400002060606060606060706068C0678060003000300010C018C00780000000000001C
:201D6000000000000000000000000000000000000000000000E000E000E0000000000000C3
:201D80000000000000E000E000E000000000000000000000000000000000000000000000A3
:201DA000000000000060006000000000000000000000000000000060006000400020002023
:201DC0000000000000000000040002000100008000400020001000080004000800100020C8
:201DE00000400080010002000400000000000000000000000000000000000000000000001C
:201E00000000000007FE00000000000007FE000000000000000000000000000000000000B8
:201E200000000000000000000004000800100020004000800100020004000200010000801C
:201E4000004000200010000800040000000000000000000000000000000003E006180C04F5
:201E60000C040C0C0C0C070001800040004000400000000000E000E000E00000000000003A
:201E8000000000000000000000E00318020C05CC0564056605A604B604B604B604B602B649
:201EA00001E4040C020C031800F00000000000000000000000000000000000600060005004
:201EC00000D00090009000880188010801F8030403040204020206020F0F000000000000C1
:201EE0000000000000000000000000FE038C030C030C030C030C018C00FC030C020C060C61
:201F0000060C060C060C030C01FE0000000000000000000000000000000003E00318060C6D
:201F2000040C04040006000600060006000600060406040C020C031800F000000000000032
:201F400000000000000000000000007F018C030C030C060C060C060C060C060C060C060CD9
:201F6000060C030C030C018C007F0000000000000000000000000000000003FF0306040610
:201F8000040600060086008600FE008600860086000604060406020603FF00000000000071
:201FA0000000000000000000000003FF03060406040600060086008600FE00860086008660
:201FC0000006000600060006001F0000000000000000000000000000000000F00118020CB3
:201FE000020C020400060006000600060FC603060306030C030C031800F0000000000000A5
:20200000000000000000000000000F0F06060606060606060606060607FE06060606060631
:2020200006060606060606060F0F0000000000000000000000000000000003FC0060006093
:2020400000600060006000600060006000600060006000600060006003FC00000000000001
:202060000000000000000000000007F800C000C000C000C000C000C000C000C000C000C0E1
:2020800000C000C000C000C000C000C60066003C0000000000000000000003CF018600C6F9
:2020A0000046002600160036002E006E004600C60086018601060306078F0000000000000D
:2020C00000000000000000000000001F0006000600060006000600060006000600060006A5
:2020E000000604060406020603FF000000000000000000000000000000000707038603869C
:20210000038E038E034E034E034A035A035A033A0332033203320312078700000000000075
:20212000000000000000000000000F8E020C021C021C0234023402640264024402C40284EE
:202140000384038403040304021F0000000000000000000000000000000000F00198030CAA
:20216000020C06060606060606060606060606060606020C030C019800F00000000000004B
:202180000000000000000000000000FF030606060606060606060606038600FE0006000668
:2021A0000006000600060006001F0000000000000000000000000000000000F00198030C50
:2021C000020C06060606060606060606060606060676024C03CC019800F0078003000000F1
:2021E0000000000000000000000001FF03060606060606060606030600FE004600C600860D
:2022000001860306030606060E0F0000000000000000000000000000000002F8030C0206EB
:2022200002060006000E003C00F803E003800700060206020606030C01F0000000000000C5
:202240000000000000000000000007FE0462086108610060006000600060006000600060A1
:20226000006000600060006001F800000000000000000000000000000000071E020C020CA4
:20228000020C020C020C020C020C020C020C020C020C020C020C011800F00000000000009B
:2022A00000000000000000000000070F020601040104010C010C008800880098009800504C
:2022C00000500070003000200020000000000000000000000000000000000EF7046204421D
:2022E000044604460264026402E402E4029C019C01980198018800880088000000000000AC
:2023000000000000000000000000079E010C01080118009000B0006000200060006000D099
:202320000090018801080304078E000000000000000000000000000000000F0F04060204B1
:20234000020C0108011800B800B0007000600060006000600060006001F80000000000003C
:202360000000000000000000000007FC020C0306010201800080004000400020002000106F
:2023800000180408040C020403FE0000000000000000000003E0002000200020002000207F
:2023A0000020002000200020002000200020002000200020002000200020002003E000007A
:2023C00000000000000000000004000400080008001000100010002000200040004000C035
:2023E0000080008001000100020002000200040000000000007C0040004000400040004015
:2024000000400040004000400040004000400040004000400040004000400040007C0000C0
:202420000000006000900108000000000000000000000000000000000000000000000000A3
:2024400000000000000000000000000000000000000000000000000000000000000000007C
:202460000000000000000000000000000000000000000000000000000000000000000FFF4E
:202480000000000000180060000000000000000000000000000000000000000000000000C4
:2024A00000000000000000000000000000000000000000000000000000000000000000001C
:2024C0000000000001F0030C030C030003E0031C030E030603060B8E0E7C000000000000A2
:2024E00000000000000000000008000E000C000C000C000C01CC033C061C060C060C060C32
:20250000060C060C020C031C01E40000000000000000000000000000000000000000000085
:202520000000000000F0018C018C01860006000600060206020C010C00F0000000000000E5
:202540000000000000000000020003C003000300030003000378038C030C03060306030676
:20256000030603060304078C01780000000000000000000000000000000000000000000036
:202580000000000001E003180208060C060C07FC000C000C0418021801E0000000000000DF
:2025A0000000000000000000000003C0066006300030003001FE003000300030003000306D
:2025C000003000300030003001FC000000000000000000000000000000000000000000003E
:2025E0000000000007F006D8018C018C018C019800F8000C00FC03CC03060306038E00F85C
:2026000000000000000000000008000E000C000C000C000C01EC031C030C030C030C030C2C
:20262000030C030C030C030C079E00000000000000000000000000000000006000600000F9
:2026400000000040007C00600060006000600060006000600060006003FC0000000000005F
:202660000000000000000000000001C001C000000000010001F00180018001800180018061
:2026800001800180018001800180018000CC007C00000000000000000008000E000C000CBE
:2026A000000C000C038C008C008C004C006C005C008C018C010C030C079E0000000000006D
:2026C00000000000000000000040007C00600060006000600060006000600060006000607E
:2026E000006000600060006003FC000000000000000000000000000000000000000000005B
:2027000000000000073706EE066606660666066606660666066606660FFF00000000000019
:20272000000000000000000000000000000000000000000001EE031C030C030C030C030C4F
:20274000030C030C030C030C079E0000000000000000000000000000000000000000000098
:202760000000000000F00198030C06060606060606060606030C030C00F000000000000077
:20278000000000000000000000000000000000000000000001EE031C060C060C060C060CE3
:2027A000060C060C030C031C01EC000C000C003E0000000000000000000000000000000084
:2027C000000000000278038C030C030603060306030603060304038C03780300030007C0D6
:2027E0000000000000000000000000000000000000000000039F0658063800180018001853
:20280000001800180018001800FF0000000000000000000000000000000000000000000059
:202820000000000003F0031C020C020C003800F003C003040304038C01FC000000000000E5
:20284000000000000000000000000000002000200030003001FE00300030003000300030E9
:20286000003000300230023001E000000000000000000000000000000000000000000000B3
:2028800000000208038E030C030C030C030C030C030C030C030C079C017800000000000009
:2028A0000000000000000000000000000000000000000000071E020C01080108011800902A
:2028C00000B000B000600060002000000000000000000000000000000000000000000000B8
:2028E000000000000EF7046204460264026402EC019C0198019801980008000000000000F9
:20290000000000000000000000000000000000000000000007BC0118011000B0006000605A
:2029200000E0009001080308079E000000000000000000000000000000000000000000006E
:2029400000000000079E0108010801080090009000B0006000600060002000200024001C47
:20296000000000000000000000000000000000000000000001FC018400C40044006000204D
:20298000003002180208030C01FC0000000000000000000003000080008000800080008054
:2029A0000080008000800040002000400080008000800080008000800080008003000000F4
:2029C0000040004000400040004000400040004000400040004000400040004000400040F7
:2029E0000040004000400040004000400040004000000000000C001000100010001000107B
:202A000000100010001000200040002000100010001000100010001000100010000C00007A
:202A20000000001C042204C20380000000000000000000000000000000000000000000000B
:202A4000000000000000000000000000000000000000000000000000000000000000000076
:202A6000000008000808080808080000181800004800246C00120000000000000000000004
:202A8000000024002424127F1212127F1212000000001C082A2A0C0A28182A281C2A0808EA
:202AA0000000220015251515582A54542254000000000C0012120A12257611296E910000D0
:202AC0000600040600030000000000000000000040001020081008080808100820100040B3
:202AE000020008041008101010100810040800020000000008081C6B6B1C0808000000001C
:202B00000000000008080808087F08080008000000000000000000000000000006060304E3
:202B2000000000000000000000FE000000000000000000000000000000000000060600008B
:202B40000000408020401020081004080204000200001800422442424242424218240000B3
:202B600000000800080E0808080808083E08000000003C0042422042102004087E420000A3
:202B800000003C0042421820402042401C22000000002000283024242222207E78200000E3
:202BA00000007E0002021A02402642401C2200000000380002241A024226424218240000AF
:202BC00000007E0022221010080808080808000000003C0042422442241842423C4200007F
:202BE0000000180042244242586440401C24000000000000000018180000000018180000F7
:202C000000000000000008000000000008000408000040001020040804021008402000009E
:202C2000000000000000007F0000007F0000000000000200080420102040081002040000DA
:202C400000003C0042424046102000101818000000001C005A2255555555422D1C22000025
:202C600000000800180814143C244222E742000000001F0022221E22422242421F2200004B
:202C800000007C0042420101010142011C22000000001F0042224242424242421F2200005F
:202CA00000003F0012421E12121242023F42000000003F0012421E12121202020702000074
:202CC00000003C0022220101710122211C2200000000E70042424242427E4242E742000023
:202CE00000003E0008080808080808083E08000000007C00101010101010101010100F11D4
:202D00000000770012220E0A120A2212772200000000070002020202020202027F4200002F
:202D200000007700363636362A2A2A2A6B2A00000000E30046464A4A525262524762000003
:202D400000001C0041224141414141411C22000000003F0042424242023E0202070200009C
:202D600000001C00412241414141534D1C32006000003F0042423E4212122222C7420000CE
:202D800000007C0042420402201842403E42000000007F0008490808080808081C080000CF
:202DA0000000E70042424242424242423C4200000000E70042422422142418140808000079
:202DC00000006B004949494955552236222200000000E7002442182418182424E7420000F4
:202DE0000000770022221414080808081C08000000007E0020211010040842043F420000FA
:202E000078000808080808080808080808080078000002020404080810082010202040403E
:202E20001E00101010101010101010101010001E380000440000000000000000000000001A
:202E40000000000000000000000000000000FF000600000800000000000000000000000065
:202E60000000000000003C0078424244FC4200000000030002021A02422642421A26000049
:202E800000000000000038000244020238440000000060004040784042444242D864000056
:202EA0000000000000003C007E4202023C4200000000F00008887E08080808083E08000028
:202EC0000000000000007C002222021C423C3C420000030002023A0242464242E7420000A0
:202EE00000000C00000C0E00080808083E08000000003000003038002020202020201E22AE
:202F000000000300020272020A1212167722000000000E0008080808080808083E080000C5
:202F20000000000000007F0092929292B79200000000000000003B0042464242E742000011
:202F40000000000000003C00424242423C4200000000000000001B00422642421E2207025F
:202F60000000000000007800424442427844E0400000000000007700044C04041F04000001
:202F80000000000000007C000242403C3E4200000000000008003E080808080830080000CF
:202FA000000000000000630042424242DC620000000000000000E7002442142408080000D3
:202FC000000000000000EB0049495555222200000000000000007600182418186E24000012
:202FE000000000000000E70024421424081807080000000000007E00102208087E4400009B
:20300000C00020202020102020202020202000C010101010101010101010101010101010C0
:2030200006000808080810080808080808080006320C00C20000000000000000000000001C
:203040000000000000000000000000000000040404040004040000001414000A0000000026
:203060000000000000000A0A0A1F1F0A0A0A00000400150E0605140C0E1500040000151236
:20308000150D2C2E122A000000000A04360A151516290000020200010000000000000000BC
:2030A000081004080404040408080010040208040808080804040002000004000E15150E36
:2030C00000040000000008003E080808000000000000000000000000020200010000000089
:2030E0003F0000000000000000000000000000000200000020001010080804040202000132
:203100000000110E111111110E11000000000604040404040E0400000000110E08110204C3
:203120001F0100000000110E0C1010100E11000000000C080A0C1F091C0800000000011F5F
:203140000F0110110E1100000000120C0D0111130E1100000000101E080804040404000062
:203160000000110E0E1111110E1100000000110E191110160609000000000000000400004E
:203180000400000000000000040000000400000400000810020404021008000000000000E3
:2031A000003F003F000000000000040210080810020400000000110E081104040400000011
:2031C0000000221C2D291D2D1C220000000004040A0C1E0A331200000000120F0E121212E3
:2031E0000F1200000000111E010101010E1100000000120F121212120F1200000000121FA1
:203200000E0A020A1F1200000000121F0E0A020A070200000000121C010111390C12000063
:20322000000012331E121212331200000000041F040404041F0400000000083E08080808F4
:203240000808070900001237060A120A3712000000000207020202023F22000000001B3BC8
:203260001B1B1515351500000000123B16161A1A171200000000110E111111110E1100004C
:203280000000120F0E120202070200000000110E111117110E1900180000120F0E12120ADB
:2032A000371200000000111E060110080F1100000000151F040404040E04000000001233BC
:2032C000121212120C120000000012330A120C0A040400000000151515150A0E0A0A000089
:2032E00000000A1B040A0A041B0A000000000A1B0A0A04040E0400000000091F04080204DB
:203300001F120000041C0404040404040404001C020004020404080810080010080E0808B2
:20332000080808080808000E0A0400000000000000000000000000000000000000003F0002
:20334000040200000000000000000000000000000C001C123C120000030002020E021212A4
:203360000E120000000000001C0002120C120000180010101C1012123C1200000000000009
:203380000C001E121C020000180004241E0404041E040000000000003C000C121C021C2291
:2033A000030002020E0212123712000004000004060004040E040000080000080C00080835
:2033C00008080708030002021A02060A130A000007000404040404041F040000000000003C
:2033E0000F00151515150000000000000F00121237120000000000000C0012120C120000A0
:20340000000000000F0012120E120702000000001C0012121C123810000000001B00020677
:2034200007020000000000001E000C021E100000000004001E0404041C04000000000000DB
:203440001B0012123C120000000000001B000A0A040400000000000015000E150A0A00005C
:20346000000000001B00040A1B0A00000000000033001212080C0304000000001E00040862
:203480001E040000081808080C08080808080018080808080808080808080808040604041C
:2034A0000804040404040006091600000000000000000000000100000000000000000000CA
:2034C000004000000000000000000000010200000001000000000000003441C40017000058
:2034E00000002000000000000100010000000000000000030018000000002000000000006F
:2035000001000100000000000000000300020000031F000000000000000000000000000082
:203520003130333235343736393862616463666542002079754573736147656C00720004BF
:203540000000000010070000000000180000300000000008060200000000000006020000F4
:10356000000000007453726100740008080000003D
:20357000B5F0B0FFB08C93044615460698909000918A68344620F001FF9E18202100918997
:2035900090024284D24422009285A885920373021C64460F1E6078002800D0342825D00623
:2035B000603446299A0447901C7F1C64E7F2980343C0900197891C60900360307820A985DB
:2035D00073082873D109A98AAA8946289B04F000F82199899C039A01E011AC05A985AA8A0F
:2035F0004620F000F8354602462046299B0047981C419A014611D00019C191899C031C488B
:203610009802D1BEE000463A4610B07FB00CBDF0460AE7F9B5F8460468081D05600D68068F
:203630002E00D01194004614461D4630F001FF434607682019C06020240042BCDA075D30B3
:20365000990047A81C64E7F8200046214798BDF8B5F0B0859201460E4604207F00801825F1
:203670002700970321FF910231FE22204620F001FF1B9504706F7B302825D0521C6B28782B
:20369000D0132864D011286FD00F2863D1209A0168101D0160116801B2C8424741479A02A6
:2036B000461030FC18207029E014461DA903AA0446309B01F000F83B980399042800D0038E
:2036D0001E48222D700AE00046089A02462BE00146289A021A1929004625DC011A611C4DFD
:2036F0001C410053260046284632F001FB792F00D0021C417006E000460142A1D8061E4877
:203710001A611C492220F001FECF70261B2922204620F001FEC94620F001FECD19C0B005CF
:20373000BDF020007060202570202001E7F7B5F84614460D46067B074619F000F8147B31D9
:203750002964D1042800D5022101602942402F6FD001210AE00021082F78D1002110462217
:20377000F000F812BDF87B002864D005286FD0032878D0012870D10468081D02600A680005
:2037900047702000477046C0B5F84614460D46062800D10468201E416021213070014F0A5F
:2037B0002E00D00D46304629F000F810460143691A715C7968221E53602370114606E7EF9D
:2037D0006820F001FE78BDF835200000B5802910D0032908D10308C0BD800900BD80F0015E
:2037F000F8F7BD80B5F0B0974614460D4606991E9A1D981CAF169701803EAE15960280355B
:20381000AD149503702CAC138023AB128018A81190047002AA107011AA0C21009105701104
:203830009916AA09801178000841A80E90067001780108C8900707491C4029009008D101E8
:20385000980790089B049A06990298019D039E08781C4374AE0A80349C143C20702C880081
:203870008809781218821E52781B18CB1E5BB292B29BF000FEB79805A90B8008E7FFA80B7C
:203890008800A90A88094288DB00E0ABA8117800280CD10CE7FFA8147800210C4341485572
:2038B0001840A90B88095C40A90F7008E034A81178002810D10BE7FFA81478000101484C86
:2038D0001840A90B88095C40A90F7008E023A81178002818D10CE7FFA8147800213043412F
:2038F00048421840A90B88095C40A90F7008E011A81178002820D10BE7FFA81478000181E3
:2039100048391840A90B88095C40A90F7008E000E068E7FFE7FFE7FFA90D20007008E7FF9F
:20393000A80D78002807DC57E7FFA81078002800D124E7FFA80F7800A90D780940C807C09A
:203950002800D005E7FFA8138800F001FAC9E004A8128800F001FAC4E7FF980C1C41A80C0D
:2039700070017800A90E7809F001F8322900D104E7FFA90C20007008E02EE027A80F780086
:20399000A90D780940C807C02800D009E7FFA8168800A9158809AA138812F001F903E7FF6B
:2039B00098161C41A81680018800A90988091A40A90E78094288D108E7FF9809A9168008DF
:2039D00098151C40A9158008E006E7FFE7FF980D1C40A90D7008E7A3E7FF980B1C40A90B84
:2039F0008008E74CB017BDF000C00000188000002A50000030400000B580B092F000FCFBE8
:203A10002001900502819101486B9002F001FCC120649003F001FC6499019802F001FB88C8
:203A30009803F001FC5D980299050689F001FB809803F001FC552011F001F8862078F00158
:203A5000FC4F2036F001F8802070F001FCD5203AF001F87A20059006F001FCCE20B2F00104
:203A7000F873200C9004F001FCC79804F001FCC42000F001FCC12033900BF001FCBD980B01
:203A9000F001FCBA20B7F001F85F2035F001FCB420BBF001F8592032F001FCAE20C2F0017D
:203AB000F8539805F001FCA820C3F001F84D2015900FF001FCA120C4F001F8462020F001BA
:203AD000FC9B20C6F001F840200FF001FC9520D09007F001F83920A4F001FC8E20A1F001E5
:203AF000FC8B20E0F001F8309807F001FC8520089008F001FC81200E9009F001FC7D20097D
:203B1000900AF001FC79980AF001FC769806F001FC7320319010F001FC6F980BF001FC6C49
:203B30002048900CF001FC682017900DF001FC642014900EF001FC60980FF001FC5D98103F
:203B5000F001FC5A20349011F001FC5620E1F000FFFB9807F001FC509808F001FC4D980994
:203B7000F001FC4A980AF001FC47980AF001FC44980FF001FC419810F001FC3E980BF00119
:203B9000FC3B980CF001FC38980DF001FC35980EF001FC32980FF001FC2F9810F001FC2C05
:203BB0009811F001FC292021F000FFCE2029F000FFCBB012BD8046C02000400AB5B04A36E1
:203BD0001880684A6042780A2A22D8560093A40158E3469F3C8100003C8B00003C81000054
:203BF0003C8B00003C8B00003C8B00003C8B00003C8B00003C8B00003C8B00003C8B00007D
:203C10003C8B00003C8B00003C8B00003C8B00003C8B00003C7100003C8B00003C71000090
:203C30003C8B00003C8B00003C8B00003C8B00003C8B00003C8B00003C8B00003C8B00003C
:203C50003C8B00003C8B00003C8B00003C8B00003C8B00003C7100003C8B00003C71000050
:203C700068032403072443A324010764191BE00368032403072443A36003690B60C368CB1A
:203C90006AC44D0640254C06401C192B62C37A0943116001BDB046C0180400008888FFFD44
:203CB00077770002B5F0B08449304A31250103AC6816022B9303439E6016680E4226D10516
:203CD000680E4226D102680E4226D0F6026C7E46699743AF402E19BD619525205D4569D6FB
:203CF000270343BE403D197561D54D22682E270740372605602E6A46683362136873625395
:203D1000602F69C3065B0C5B69D5267F023643B518EB61D3C8E89700680797016847970230
:203D3000071B0B1B032DB2AD18ED07330D1B7A009E004335431D9B01431D9B02431D430504
:203D500069904B0D4003480D402818C0619068109B034318601068084220D10568084220DE
:203D7000D10268084220D0F6B004BDF00204400B0108400B13004040008DFFF0FF72000F33
:203D9000B580B0882009F001F9BB200AF001F9B8201421029102F001F90799022015F00170
:203DB000F841201921039103F001F8FE99032018F001F8FA99032017F001F8342300930481
:203DD000930020019005040220314619F000FE8C990498059100044204C320109007F000CB
:203DF000FE51201AF001F980201BF001F97D201EF001F97A2038F001F977480E9006490E80
:203E1000F001FAD19806490DF001F9AA9806490CF001F952990598060249F001F8D398063E
:203E30009907F001F8A598069907F001F8AFB008BD8046C02000400A0C0000404000040079
:203E50004C000440B580B08848249002210091004A23F000FF3D990098024A22F000FF245A
:203E7000990098022201920302929201F000FE2499009802F000FF7C980299034A1AF000E6
:203E9000FF27980299034A19F000FF0E9A0198029903F000FE1198029903F000FF6948149C
:203EB000888049149104800848139005F001F9D0990498058809F001F9B320049006F000B4
:203ED000FE879806F000FEB020059007F000FE809807F000FEA9B008BD8046C0A000404294
:203EF0001280400000002020328040000800202010F0202011042020A0004086B580B08600
:203F10002001F001F86D900598052802D13DE7FF481F2110F001F9FB2800D135E7FF201405
:203F3000F001FA21481B780007C02800D11FE7FF4819780007C02800D119E7FF49152001AE
:203F50009004700849147008491470084814F001F9739804900220109001481290004A12AD
:203F7000203F0143200A2164F000FA08E7FFE7FF48072110F001F9CB2800D101E7FFE7F72E
:203F90002014F001F9F0E7FFE000E7FFB006BD802000400A110620201107202011082020F2
:203FB000A0004086FFFF000035640000B580B084200090029003F000FC8920010581481BC7
:203FD000F001F8C2481AF000FAB3F7FFFD1520C89001F001F9C8F001F9BB9801F001F9C309
:203FF000F7FFFF30990248139000202300C223F04608F000F901E7FF480F780007C0280012
:20401000D113E7FF480D780007C02800D10DE7FF480B780007C02800D007E7FF4809F0018D
:20403000F923490720007008E7FFE7E52000400A35310000FFFF000011062020110720203D
:2040500011082020A0004086B580B08A492148229009F000FC5D98092200920892019200EA
:20407000230193060459F000FB0F99069B0898099304060991039302930193004619461A84
:20409000F000FB74990698090409F000FF0B9809F000FF4499069809F000FD6E99069809BB
:2040B0000209F000FF4998092102F000FFDF980921209107F000FF2499079809F000FF4A14
:2040D00099082005F000F8DA9809F001F915B00ABD8046C0355C000020004000B580B08A4B
:2040F00049212001900607809009F000FC119B06980922009208920192000459F000FAC444
:2041100099069B0898099304060991039302930193004619461AF000FB2999069809040996
:20413000F000FEC09809F000FEF999069809F000FD23990698090209F000FEFE9906980972
:20415000F000FF94980921209107F000FED999079809F000FEFF99082004F000F88F980980
:20417000F001F8CAB00ABD8035540000B580B088481B9001F000FFD0481A9002F000FFCC2D
:2041900048199003F001F84048189004F001F88448179005F001F814200107809006F00072
:2041B000FF7F48149007F000FF7B9801F000FF909802F000FF8D9803F001F81A9804F001BB
:2041D000F85F9805F000FFE49806F000FF5D9807F000FF5A2010F001F989B008BD8046C098
:2041F0000000400A2000400AA000408680004010A000404620004000B5B0B0884614460DF5
:2042100046019A0CA8078001A906800DAD05802CAC048023AB03801A880088099A051E5214
:204230009B041E5BB292B29BF000F9DC9806A9028008E7FFA8028800A90488094288DA1B1A
:20425000E7FF9807A9018008E7FFA8018800A90588094288DA0AE7FFA8038800F000FE404C
:20427000E7FF98011C40A9018008E7EEE7FF98021C40A9028008E7DDB008BDB0B570B082FD
:204290004602A80170029100210056402800D416E7FF2400A9015708220343D340184A174A
:2042B00058805709078C0EE524FF40AC43A09C0001A4B2E440AC432040195088E01AA90143
:2042D0007808240F40203808220343D340184A0A588025005749078D0EEE25FF40B543A863
:2042F0009D0001ADB2ED40B543284021390840195088E7FFB002BD70ED1CE000E400E0001F
:20431000B5F81C45780023002B08D032782F07C2D10C786A240F40141CE42C12D10B2402B9
:20433000572EB2F42E00D4081CEEE00E1C6D1C4A700F4611E01A1CAEE0081D2E78ED95008A
:20435000257F402C9D0001ED192C3412013D091219524D0942AAD00E43D22C00D0055C8D44
:204370001C4F700D1E644639E7F7463508401C5BE7CA4628E7C5BDF80FFF0000B5F0B08DBC
:204390004614460D4606981499139A12AF0C803EAE0B8035940AAC098023AB08801AAA0735
:2043B0007011A9067008E7FF980A78002800D020E7FFA80C90058800A90B88099A0A781203
:2043D000AB09881BAC088824AD079504782DAE067836960295019400F7FFFA0498049905D2
:2043F00078000842980C18808008980A1C40900AE7DAB00DBDF04770B0859004202690000E
:204410009904205043489003481668009002E7FF481468009001980199024288D01FE7FFFB
:20443000980199024288D207E7FF980299011A41980018409000E009480B680099011A4008
:2044500099021841980018409000E7FF98019002980099034288D301E7FFE001E7FFE7D78A
:20447000B0054770E018E000E014E000B5F04B16461D3D08682E240143A6602E681E270384
:20449000033F43BE403818306018681826FF43B0B2C918406018682843206028681D2A0084
:2044B000D00E480A022107224315601D6802420AD1056802420AD1026802420AD0F6BDF05D
:2044D00007204385601DBDF00110400B0204400BB580B08220009000F000FE7E20019001D1
:2044F0000240F000FCAF9800F000FD88F000FFBCF000FF649A0120030300210AF7FFFFB62D
:20451000480AF7FFFBCF2010F000FD86F000FF60F000FFB29800F000FCA59800F000F992AA
:2045300098012102F7FFFEAAB002BD8034B40000B083B51EAC05C40E9001480F680047809A
:204550004A0E69901C40D00DA9059102480C900032184B0CA801F7FFF8034604480A68005D
:204570004780E004480868004780200043C44620BC1EBC02B003470810FC2020100020203E
:20459000551900005511000011002020B580B084491148129002F000FD4D98024910F7FF14
:2045B000FB0D9802F000FF1E98022100910122019203F000FBB5990198029A03F000FA4696
:2045D00098029A03210CF000FBAB980299032202F000FA3CB004BD80356A0000A00040865B
:2045F000350C0000B510B086AC058020A80490008001A8038002A80290018003202AF0003C
:20461000FAA398053014B280F000FC6A98033014B280F000FC65202BF000FA969800880037
:20463000F000FC5E98018800F000FC5A202CF000FA8BB006BD104770B580B084900391022F
:204650009803F000FF3F46698008A90120008008E7FFA8018800466988094288DA0DE7FF0A
:204670009803A90188095C414806F000FC0BE7FF98011C40A9018008E7EB46688800B004A9
:20469000BD8046C080004010B510B0849C079C0690039102920193009803490A184099028C
:2046B0009A0143119A0043114A07F000FAE998034906184099069A0743114A05F000FAE0FA
:2046D000B004BD1011040000000100131108000000071F1FB5F0B0814606685368948995CB
:2046F00089D0900069176950431C432C433C9B00431801004320010B18F3240902645118CE
:20471000781078520089187143024804580B24BF43A34022189A500AB001BDF0111000007B
:20473000B580B0849003910292019803490B184099024A0BF000FAA49803490A18409901A2
:20475000223FF000FA9D99034A071888588922014011F000FA95B004BD8046C011100000E8
:20477000FFFF00001114000011040000B510B0859200460298009C0B9C0A9C099C089C074C
:204790009204AA03701190029301980299014308990743089908430899094308990A4308EE
:2047B000990B43089904781200921889222301D25088B005BD104770B5702211021318C230
:2047D00058C4250143AC50C4880C788D4325888C432C58C54E08402E4D084025197450C4C4
:2047F000798879CB43037A0843186851237E4399401818086050BD7098E7FFFD67180000BC
:20481000B5702211021318C2890C884D4325798C432C58C54E09402E4D094025197450C4BD
:20483000888879CB4303780843186851235D009B4399401818086050BD7046C0CC80FFFF9E
:20485000337F0000B510490E4A0E2301055C609068084220D10568084220D102680842208E
:20487000D0F66810041B43036013680806C0D405680806C0D402680806C0D5F6BD1046C023
:204890000204400B0104400BB580B082A9019100700820010381480BF000FD7B98007801DC
:2048B0004809F000FD3FE7FF4807F000FC7D2800D001E7FFE7F8200103814802F000FC38FC
:2048D000B002BD802000400AA0004046B580F7FFFC4DF7FFFA55F7FFFDFBF7FFFE57F00067
:2048F000F857F000F835F7FFFBF9F7FFFBADF000FDF7F000FDD14904229C200054884903BF
:2049100022245488BD8046C0110C202011AC2020B5F02211021318C2780C4D0B59464F0B2C
:2049300040372603402619BC26A9063619A45144684C58C52607063643B54034192C50C430
:2049500078486110BDF046C008080000FFFC00FFB580B082490B480C9001F000FD609801D3
:20497000490AF7FFFF4D98012100F000FA27980121102202F000F8D09801F000FBFDB002EE
:20499000BD8046C035520000A0004046353E0000B580B082490B480C9001F000FD49980135
:2049B000490AF7FFFF0998012100F000FA8A980121410089221BF7FFFEB39801F000FCBDBE
:2049D000B002BD80356D00008000401035480000B51C000AD0172300240107E442A0D20040
:2049F00000044294D9010052E7FB4290415B4290D3001A804291D2010852E7F6001900021A
:204A100000080011BD1C00012000F7FFFE14BD1CB570480A4C0A4284D00C4D0A4E0A42B57D
:204A3000D008682A68691C507812009258A247903508E7F4BF00BF00BD7046C05580000034
:204A5000557400005588000055980000B0869200460A99009201460298019205AA047010C9
:204A7000A803700199054B0618C991027800210F40089902781200925088B006477046C0B5
:204A900004440000B510B0849C06900391029201930098029901430899004308990643088A
:204AB00049034308990300894A025088B004BD100081000480044042B0859200460A99004A
:204AD0009201460298019204AA037010A8028001880099047812011218894A025088B00528
:204AF000477046C0120C0000B510B0849C0690039102920193009802990143089900430881
:204B10009906430821814308990300894A015088B004BD1080044042B580B0849200460A94
:204B3000460198009103A902700AAA01701098034B0418C0780978124311223FF000F8A098
:204B5000B004BD80110C0000B580B084A90391007008200102C1910248069001F000FC19BE
:204B700098007800F7FFFE9098019902F000FAE0B004BD802000400AB580B08491014601F6
:204B900098019103A902700898034A051880780902C9221F02D2F000F873B004BD8046C080
:204BB00011080000B580B084460BA9038008A8028003AB019300801A880A88034610461906
:204BD000F7FFFD1098008800F000F98AB004BD80B081460146687001210056402800D409EB
:204BF000E7FF46687801201F40012001408849026008E7FFB0014770E280E000B081460174
:204C100046687001210056402800D409E7FF46687801201F40012001408849026008E7FF9A
:204C3000B0014770E280E000B081460146687001210056402800D409E7FF46687801201F1B
:204C500040012001408849026008E7FFB0014770E100E000B081460146687001210056400A
:204C70002800D409E7FF46687801201F40012001408849026008E7FFB0014770E100E000E7
:204C9000B0849003910292019803680090009800990143889000980099029A01401143088D
:204CB00099036008B0044770B0849200460298009203AA02701190019801990378120112AA
:204CD00018894A025088B004477046C012080000B0849200460298009203AA02701190017B
:204CF000980199037812011218894A025088B004477046C012040000B08190004905200453
:204D1000600898001E4049046008490420006008B0014770E010E000E014E000E018E000B7
:204D3000B0849003A8027001920199034A05188991009B019900780000825888431850888F
:204D5000B0044770105800004808F3808808BF00BF00F000FBE62800D001F7FFFE59200068
:204D7000F7FFF9242001F000FBD346C080002020B0839100460198009102A9017008980279
:204D9000780901091841200902425888230243185088B00347700000B5804806F000FB366C
:204DB0002806D104E7FF490420007008E000E7FFBD8046C02000400011072020B580B082ED
:204DD0009001910098014904184099004A03F7FFFF57B002BD8046C01108000003FF000021
:204DF000B5B0460420002B00D008B2D2780D70254295D0041C641C491E5BD1F7BDB01C6079
:204E1000BDB00000B58020010780F000FAFF2806D104E7FF490220007008E000E7FFBD8080
:204E300011062020B08290019100980049034308990100894A025088B00247700080000454
:204E500080044042B580B0824601A80180018801200F02024802F7FFFF13B002BD8046C061
:204E70000104400BB580B0824601A80180018801200102424802F7FFFF03B002BD8046C0D5
:204E90000138400B4A06188068020612D50568020612D50268020612D4F66181477046C0F6
:204EB00011080000B580B082900191009801211102091840990022010412F7FFFEE1B002B9
:204ED000BD80B580B0829001910098012111020918409900220303D2F7FFFED2B002BD8086
:204EF000B580B0824601A801900080017840F7FFFCCB98007800F7FFFCC7B002BD8000000D
:204F1000B082900191009B0099014A03588843185088B002477046C010480000B081900010
:204F300099004A0458882301021B43185088B001477046C011080000B082900191009B00B0
:204F500099014A03588843185088B002477046C010880000B082900191009B0099014A036A
:204F7000588843185088B002477046C010280000B082900191009B0099014A035888431856
:204F90005088B002477046C010480000B082900191009B0099014A03588843185088B002C7
:204FB000477046C010280000B08290019100980021804308990100894A015088B002477065
:204FD00080044042B082900191009B0099014A03588843185088B002477046C013900000C0
:204FF000B08146014668700178012030434849025840B001477046C011004040B580B0826D
:205010004601A8017001780148022203F7FFFE38B002BD800100400BB580B0824601A80179
:205030007001780148022230F7FFFE2AB002BD800104400BB510220103121883780C609C65
:20505000784B508378894A015081BD10110C0000B580B08290019100A80178014802F7FFB8
:20507000FF119801B002BD8080004010B0829001466870017800210F400899012201029295
:205090005088B00247700000B08190009900200102C248025088B001477046C000012600C9
:2050B000B081900099004A0248025088B0014770080400000003B100B08290019100980004
:2050D00099014A025088B002477046C012D00000B08190009900200102C248025088B0019F
:2050F000477046C000012600B0819000980000814A0220815088B001477046C080044042A9
:20511000B0819000980000814A0220005088B001477046C080044042B081900099004A0247
:2051300048025088B0014770080400000003B100B08290019100980099014A025088B002B9
:20515000477046C012900000B08290019100980099014A025088B002477046C01290000025
:20517000B08290019100980099014A025088B002477046C012900000B081900099004A03BD
:205190005888230143185088B001477011040000B08190009900200102C248025088B00139
:2051B000477046C000012600B0819000980049035840211040080900B001477011100000B3
:2051D000B081900099004A0248025088B0014770080400000003B100B08146014668700138
:2051F000780049026008B001477046C00308400BB08190009900200102C248025088B0019E
:20521000477046C000012600B081900099004A0248025088B0014770080400000003B100AA
:20523000B08290019100980099014A025088B002477046C018080000B081900099004A037E
:205250005888230143185088B001477018040000B081900099004A03588823014398508825
:20527000B001477018040000B081900099004A035888230143985088B001477018040000B8
:20529000B08190009900200102C248025088B001477046C000012600B081900099004A0262
:2052B00048025088B0014770080400000003B100B5804A0348032100F7FFFA0CBD8046C067
:2052D00034DC0000A0004042B5804A0348032101F7FFFA00BD8046C034F40000A000404220
:2052F000B580B0829001990148024348F000F8FEB002BD8038800001B0819000990020111E
:2053100002025888230143185088B0014770B082900191009801212701C958409900400862
:20533000B0024770B08290014668700178009901224501925088B0024770B081900099006B
:20535000201102025888230143185088B0014770B580B08220019001F7FFFC509801F7FF7F
:20537000FC79B002BD80B580B08290019901207D00C04348F7FFF840B002BD802203588025
:205390002800D0051E401C4A2300700B4611E7F74770B08290019100980099012295015222
:2053B0005088B0024770B0829001910098009901229501525088B00247700000490368080F
:2053D0002201021243906008477046C00108400B490368082201031243106008477046C0CE
:2053F0000104400BB081900099004A0220015088B001477011080000B580B0824601A801D6
:2054100070017800F7FFFA40B002BD80B08190009800218101495840B2C0B0014770B510F8
:20543000220103121883780C605C78495081BD10B510220103121883780C609C7849508140
:20545000BD10B5102300429AD0035CCC54C41C5BE7F9BD10B580460B210358421DC14618F4
:20547000F000F84ABD8000004902680822014390600847700108400B490268082210431049
:2054900060084770013C400B490268082205431060084770E010E000B580207D0200F7FF67
:2054B000FC2BF7FFFFF1BD80460B4611461AB580F000F80FBD8021005C421C492A00D1FB07
:2054D0001E48477021005C421C492A00D1FB1E4847702300429AD00254C11C5BE7FA477073
:2054F000B580F7FFFEE5F7FFFEEFBD801E811F09BF00D2FC47700000B580F7FFFFA2BD805A
:20551000B580F7FFFDA5BD80B580F7FFF895BD80F000F803E7FEE7FFE7FEBF004770E41374
:085530004770200147700000E4
:2055380055000000810F1220E0FFFF0101EFFF2215E0FF0201EFFF24FFE00000EFFF010273
:205558007E7F4FFFF3001F018703FF131F3FFFEF47C700000000FF31FFE200F0431100008A
:2055780054650000538D00000002000000C80000553800000000202055800000110C2020B1
:00000001FF
