:20000000800020202D6B00002D5F00002D530000000000000000000000000000000000007C
:200020000000000000000000000000002D77000000000000000000002D6300002D7B0000E4
:200040002D4700002D4B00002D9700002DA30000243500001B4D00002D3B00002D3F00008B
:20006000000000002D6F00002D73000000000000000000002D9B00002D9F00002405000087
:200080002D8700002D8F00002D7F00002D8300002D9300002D8B000000000000000000001C
:2000A0002D5700002D5B000000000000000000002D370000000000002D6700002D430000CC
:2000C000B580B08C2000900BF002F95220C89008F002FD45F002FD389808F002FD40F0011C
:2000E000FA3720010581488BF002FC70E7FF488A784006002800D57AE7FF488878002801B3
:20010000DB13E7FF488678002801D10EE7FF2014F002FD254883780007C02800D104E7FFA2
:20012000498120017008E7FFE7FF487C78002801DB54E7FF487A78002802D14FE7FF201478
:20014000F002FD0D4879F001FDDB207D0080F002FD062000900AE7FF980A21FF31F44288B6
:20016000DC3BE7FF980A0041487E5A40F002F9E6220092054B7C9304F000FE5C9A054B7BA8
:200180009306F001F83BF001FF5546014878F001FDB7200A9007F002FCE2980A0041487580
:2001A0005A40F002F9CB9B049A05F000FE439A059B06F001F823F001FF3D4601486EF00119
:2001C000FD9F9807F002FCCB990A486CF001FD98E7FF980A1C40900AE7BEE7FF494E20008E
:2001E0006008484F21010209F002FD84E7FF484E780007C02800D01EE7FF494D200170087A
:20020000494C7008494820007008494B7008494B8008484B8800494B91028008484AF00133
:20022000FD6F9802880148499003F002FC179803F002FC2CE7FF483E780007C02800D16449
:20024000E7FF483C780007C02800D05EE7FF4939200070084838780007C02800D105E7FFFC
:20026000F000FE6E493A6008E7FF4833780007C02800D049E7FF483668002802D344E7FF63
:200280004828780007C02800D008E7FF492520007008F000FC0F492E6008E034482C6800F9
:2002A000F002FA16220092014B2AF000FFA746029801460B4928F000FDBD9A014B27F00032
:2002C000FA7CF001FEB74601A80980018800284FD30EE7FFA809880049214288D808E7FF90
:2002E00099094818800188014818F002FBB7E7FF490F20017008490F7008490A7008481321
:20030000F002FBC4E7FFE7FFE7FF200AF002FC27E6ED46C02000400A11002020176C2020E4
:2003200015282020111B2020111E20202E850000111A2020111D2020111C20201112202009
:2003400010F02020111020202DD80000A000408610FC20202000406812D041930000BFF018
:20036000FFEF000000002020FE0040AFE000406F2E620000080020202E5000002E920000BD
:20038000B5F0B0FFB08C93044615460698909000918A68344620F002FC92182021009189C7
:2003A00090024284D24422009285A885920373021C64460F1E6078002800D0342825D00645
:2003C000603446299A0447901C7F1C64E7F2980343C0900197891C60900360307820A985FD
:2003E00073082873D109A98AAA8946289B04F000F82199899C039A01E011AC05A985AA8A31
:200400004620F000F8354602462046299B0047981C419A014611D00019C191899C031C48AC
:200420009802D1BEE000463A4610B07FB00CBDF0460AE7F9B5F8460468081D05600D6806B1
:200440002E00D01194004614461D4630F002FC374607682019C06020240042BCDA075D30E3
:20046000990047A81C64E7F8200046214798BDF8B5F0B0859201460E4604207F0080182513
:200480002700970321FF910231FE22204620F002FC0F9504706F7B302825D0521C6B28785B
:2004A000D0132864D011286FD00F2863D1209A0168101D0160116801B2C8424741479A02C8
:2004C000461030FC18207029E014461DA903AA0446309B01F000F83B980399042800D003B0
:2004E0001E48222D700AE00046089A02462BE00146289A021A1929004625DC011A611C4D1F
:200500001C410053260046284632F002F8F32F00D0021C417006E000460142A1D8061E4820
:200520001A611C492220F002FBC370261B2922204620F002FBBD4620F002FBC119C0B0051B
:20054000BDF020007060202570202001E7F7B5F84614460D46067B074619F000F8147B31FB
:200560002964D1042800D5022101602942402F6FD001210AE00021082F78D1002110462239
:20058000F000F812BDF87B002864D005286FD0032878D0012870D10468081D02600A680027
:2005A00047702000477046C0B5F84614460D46062800D10468201E416021213070014F0A81
:2005C0002E00D00D46304629F000F810460143691A715C7968221E53602370114606E7EFBF
:2005E0006820F002FB6CBDF82E740000B5802910D0032908D10308C0BD800900BD80F00141
:20060000FDC7BD80B5B0B08E900CA80B8001920A88002801DC04E7FFA90D20008008E0B65F
:20062000A80B880000401E80F002FB6A9009A90820008008E7FFA8088800A90B88091E498E
:200640004288DA10E7FF990CA80888000042188888405A891A4099095288E7FF98081C40DE
:20066000A9088008E7E79809A90B910188091E494B492202F000FABA980188001E400FC1E9
:200680001841220143911A402801D10CE7FF9809A90B88091E490FCA1889220143915A406C
:2006A000A9078008E0109909A80B88021E900FC318C0230143DB40185A08401A5A8918404A
:2006C0000840A9078008E7FFA80790008800F001FF354A324B32F000FD91F001FCAB460172
:2006E0009800AA0680118800F001FF284A2D4B2EF000FD84F001FC9EA9058008A904200092
:200700008008A9038008E7FFA8038800A90B88091E494288DA34E7FFA803880049230042B9
:20072000188888405A891A41A80280018800A90588094288DB1EE7FFA8028800A906880906
:200740004288DC17E7FFA803880100494A175A539C0AA904880D00AD5363880000401880C0
:2007600088409A0A880B009B18D2805098041C408008E7FFE7FF98031C40A9038008E7C304
:200780009809F000FCC79804A90D8008E7FFA80D8800B00EBDB046C02BF10000999A999956
:2007A00099993FF1CCCDCCCCCCCC3FEC17402020B4FC240107E44063E002B4FC240107E447
:2007C000B408031D08ED0DD643350256005F0D7FD106002C4334D000E0AEB001BCFC4770B2
:2007E00008A443252407022434FF42A7D10520000D190509B001BCFC47702B00D503240007
:200800001BA641AC0025030B08DB0DC24313024200480D40D107001C4314D000E08CBC0EC5
:200820000010BCF047702401076443232407022434FF42A0D10520000D090509B001BCFC66
:2008400047702900D50324001AA2419C00231BC1D508001C002B002500140032002624004B
:200860001A6100382936D525B40239394249000C3C20D203002F408F4337E001003740A705
:200880002F00D0012140430EBC022920D50B2900D00E424C3420B42040A5002CBC20410DC7
:2008A00040CE1936E0042900002E410D3920410E1992416B001C4314D03E24002B00D504AA
:2008C000240121001A8A4199000B1E400052415BD5FB210102890015400DD00C18522700B1
:2008E000417BD3011C40E00B210701C90015400DD1010089438A21070209438A0052415BB7
:200900001C80DD192107020931FF4288D309BC0E20000FC9020931FF00C91DC90509BCF0D6
:2009200047700B190500430107E4432105180B124310B001BCFC477021002000B001BCFCED
:2009400047704770B580B08E900CA80B800188002800D104E7FFA90D20008008E0A3A80BE7
:20096000900288000040F002F9CB9A02900A980A990C88120052F002F9CF9902980A880976
:200980004B4B2202F000F9329802780007C02800D113E7FF990AA80B880220019001438260
:2009A00018881E8088005A891840F001FC4F99010789F000FF979009E009980AA90B8809E1
:2009C000220143915A40F001FE339009E7FF980A8800A9088008A90720018008A9068008F2
:2009E0009908AA058011A9048008E7FFA8048800A90B88094288DA3CE7FF980AA9048809DC
:200A000000495A40A90888094288D105E7FF98071C40A9078008E00A980AA90488090049E5
:200A20005A40A9088008A90720018008E7FFA8078800A90688094288DC0EE7FFA80788005C
:200A4000A90688094288D10EE7FFA8088800A90588094288DA07E7FF9807A9068008980849
:200A6000A9058008E7FFE7FF98041C40A9048008E7BCA80688002803DB04E7FF9805A90335
:200A80008008E0099809213F0609F000FC9CF001FC53A9038008E7FF980AF000FB3B980390
:200AA000A90D8008E7FFA80D8800B00EBD8046C02BF10000B580B084483F49402201029288
:200AC000F000FE86A90320008008A9028008A9018008E7FFA801880049394288DC2AE7FF9A
:200AE000A8018800004148355A40A90388094288DD08E7FFA8018800004148305A40A9036B
:200B00008008E7FFA80188000041482C5A40A90288094288DA08E7FFA80188000041482738
:200B20005A40A9028008E7FFE7FF98011C40A9018008E7CFA8038800A90288091840084030
:200B400049208008492020008008492080084920700849208008E7FF481E8800F000FDA06F
:200B6000481B780007C02800D00BE7FF481788000040491918401E8088001CC04915800821
:200B8000E7FFE7FF4812780007C02800D1E4E7FFF000FC80491191006008480C8801480E3B
:200BA0004A0FF7FFFD2F490F8008480FF001F8A898006800B004BD80000020200800202079
:200BC00003FF0000110C2020110E202011182020111F2020111620201740202010FC202034
:200BE00016C82020111420202E240000B5F0B091461E460C90094255920F9310950C086700
:200C0000D100E08B94021E6346104378990918089006200093014639460791041E4890030A
:200C2000429FD267930A1E789705463E43569D09900E46029906461719A8460C9A10479092
:200C400046219B0F1C7A18ED2800D4F49708920B1C5090079F0A463A435A920D9E09980D08
:200C600018309A10479046211E7F9B0C18F62800DCF51C78990B4281D214463C980A1C4197
:200C8000910D9A0F43519B0E4353930E2A00D0111E52980E5C2B5C77542F54731C491C4013
:200CA000900EE7F39B0842BB460F46039E109A0FD1B6E01C99049A0B4291D00D980342A035
:200CC00046239E109A0F9F07D1AA98051E40435018289B0B4619E0061C619A0F980D43501C
:200CE00018309E109B0B90061C5F4623E795980B1E431C472B009C02D0061C5998099A0F9D
:200D00004633F7FFFF739A0F98014287D206461043789909180991091BE4E770B011BDF0DD
:200D2000B5FE2900D0054C3D27002C07D803463EE0032700E06F46263E08428ED36B97010F
:200D40001E43220842184607D00046172807D80046171DC89002250748316800478048310C
:200D600078012900D10B21012C09D2012200E0034A2D2300609360164B2C601A70019802C7
:200D800043A890021E7842794C2868252D00D034462C34081906400E42B4D010462A3210B0
:200DA00046333B08429AD90119F6E7F9682A2301439A18A29B0218F3429AD3E6E006682AD0
:200DC0002301439A9B02429ADBDF46264628F001FD8D42A6D0161B3038086829220143D367
:200DE00040191A0960284018182F4311390860B937084628F001FC30E005480D680047806F
:200E00009F01E008462F46389902F000FF4748086800478037084638BDFE46C00400000085
:200E20001104202011202020112820201768202011082020B4FC000C405C0FE407E4B41061
:200E4000031D0B2D0056416D005F0D7FD0732401056443252407022434FF42A7D061030B66
:200E60000B1B0042415B00480D40D0642401056443232407022434FF42A0D0521BC021002D
:200E80002700243642ABD10042B2D304417F41491B9241ABE001417F41491E64D0062B00B7
:200EA000D1012A00D0020052415BE7EB2C20D2072C16D30A003940A726201B3640F1E00B8D
:200EC0003C20003940A12700E00640A126201B36003D40F5432940A7240105644221D1028E
:200EE000007F41491E4024001C7F4161240105A44221D0021C4043A1E001086443A124038F
:200F0000022434FF1900DD16192442A0D80907CC08490500430108784320BC104321BCFC34
:200F20004770BC0220000FC9020921FF00C91DC90509BCFC477021002000B001BCFC47708C
:200F4000B580B082492F20008008492F8008492F7008492F8008E7FF482D8800F000FBA0AC
:200F6000482A780007C02800D00BE7FF482688000040492818401E8088001CC049248008E1
:200F8000E7FFE7FF4821780007C02800D1E4E7FF481D8800280ADB07E7FF4923200170082E
:200FA000F000FA789001E02A481B88002805DB17E7FF491D20017008481388002800D10366
:200FC000E7FF20009001E01A480F88002801D103E7FF20019001E012F000FA5C9001E00E55
:200FE000F001F916490D20017008490D7008480DF001FD40E7FFE7FF20009001E7FF9801B5
:20100000B002BD80110E202011182020111F2020111620201740202011122020111A2020DD
:20102000111D2020A0004086111C2020B5B04A361880684A6042780A2A22D8560093A4016A
:2010400058E3469F10E1000010EB000010E1000010EB000010EB000010EB000010EB0000A7
:2010600010EB000010EB000010EB000010EB000010EB000010EB000010EB000010EB000098
:2010800010EB000010D1000010EB000010D1000010EB000010EB000010EB000010EB0000AC
:2010A00010EB000010EB000010EB000010EB000010EB000010EB000010EB000010EB000058
:2010C00010EB000010D1000010EB000010D1000068032403072443A324010764191BE0030E
:2010E00068032403072443A36003690B60C368CB6AC44D0640254C06401C192B62C37A09A0
:2011000043116001BDB046C0180400008888FFFD77770002B5F82800D06746044833680056
:2011200047803C084E3222004631461568302701460243BA18B6360842A1460AD3F44B2DAD
:201140004A2B2B07D901189A3A084296D900260042A1D14707C0D0452D00D00A682940395B
:201160004628D00020002E00D1062900D12A2600E00B2E00D0262000783107C94631D000D3
:2011800021002800D00B460E46054628F001FBAE2E00D108F001FD8418803008E00F250027
:2011A0002900462FD00E4630F001FBA02F00D00DF001FD766833400B188018C03010602823
:2011C000462CE00C682021014388E0076820210143C940086832400A1880300860204620BD
:2011E000F001FA3A480468004780BDF811042020112820200400000011082020B5FC000CB2
:20120000405C0FE407E4B41002DD0D54432502D6005F0D7FD060240107E44325240702242C
:2012200034FF42A7D05002CB0D44432302C200480D40D051240107E443232407022434FF7A
:2012400042A0D04119C0B40100180029F001F83A000FB40100180031F001F8340003000C70
:2012600000100031F001F82E000600100029F001F829000518762200BC02BC01415541516D
:2012800019A441554151248000A4195B415118FF4151D5000064193F4151D402007F414970
:2012A000E0001C402403022434FF1B00DD14192442A0D80905030AF8054C432000490B094B
:2012C0004319BC104321BDFC200021FF00C91DC90509BC104321BDFC21002000B001BDFC38
:2012E000B5F0B08449304A31250103AC6816022B9303439E6016680E4226D105680E422622
:20130000D102680E4226D0F6026C7E46699743AF402E19BD619525205D4569D6270343BEA7
:20132000403D197561D54D22682E270740372605602E6A466833621368736253602F69C3FE
:20134000065B0C5B69D5267F023643B518EB61D3C8E897006807970168479702071B0B1B9D
:20136000032DB2AD18ED07330D1B7A009E004335431D9B01431D9B02431D430569904B0DF5
:201380004003480D402818C0619068109B034318601068084220D10568084220D1026808E6
:2013A0004220D0F6B004BDF00204400B0108400B13004040008DFFF0FF72000FB4FC270198
:2013C00007FF4079E002B4FC270107FF020C004D0E2DD1032C00D152BCFC4770433C2DFFBB
:2013E000D05008A42900D5004264020200430E1BD1042A00D1430008BCFC4770433A2BFFDC
:20140000D04108922800D50042521B5ED50400170022003C4276002B2E19D5060027413725
:2014200019D2271C1BF7427F40BC2A00D027D50242522701E00027003B010052D5FC001580
:2014400026804035D00F001526204035432C3280D208001526404035432CD1042601023634
:2014600043B2E0001C5B00523302DD082BFFD20B0A5005DB431807FF4338BCFC4770200008
:20148000BCFC477000080FC707FF20FF05C04338BCFC4770B580B08648258800F001F84E94
:2014A000220092024B23F7FFF98846029802460B4921F7FFFCBFF000FB4B9005A9042001AA
:2014C0008008E7FFA8048800491C88094288DA10E7FFA80488000042491C5A881E925A898A
:2014E0001A4049175288E7FF98041C40A9048008E7E8481288001E41A80380018801481028
:20150000F7FFFA204601480F8001990591018800F000FE9C46019801F000F9E4F000FE5867
:2015200022004B09F7FFF949F000FDF0B006BD801110202000003FF012D04193111820207E
:2015400017182020110E202000003FE017402020B580B08848209003210091014A1FF00192
:20156000F82B990198034A1EF001F812990198032201920402929202F000FF149901980362
:20158000F001F892980399044A16F001F815980399044A15F000FFFC9A0298039904F000F4
:2015A000FF0198039904F001F87F48108800491091058008480F9006F001FA7499059806AC
:2015C0008809F001FA3F20049007F000FF5F9807F000FF88B008BD80A00040421280400048
:2015E00000002020328040000800202010F0202011102020A0004086B082A90170084824AA
:20160000784006002800D501E7FFE03FA8017800280DD107E7FF491E680822010392431013
:201620006008E033A8017800280AD111E7FF4818784006402800D50AE7FF481568012201E0
:2016400003D243116001680049147008E01EE7FFE7FF480F6801480F4001466880018800EA
:2016600028FEDC0FE7FF9801466A8813490A54C8490768082303039B401888121C524310E9
:201680006008E003490220006008E7FFB0024770110020203FFF000015282020176C20200E
:2016A000B082A9018008482188002814DB04E7FF491F20007008E036980146698008E7FF08
:2016C0004668880021FF00894288DC28E7FF46688800004148175A40491788094288DC1858
:2016E000E7FF466888000040491218408840491288094288DD0DE7FF9800490C880A0053BB
:201700004A0E52D088081C408008490920017008E009E7FF98001C4046698008E7D04904F2
:2017200020007008E7FFB002477046C011182020111F202000002020110C202017402020AF
:20174000B580B08A49212001900607809009F000FCFF9B069809220092089201920004596E
:20176000F000FBD099069B0898099304060991039302930193004619461AF000FC35990656
:2017800098090409F001F8089809F001F83199069809F000FE65990698090209F001F836F2
:2017A00099069809F001F8B0980921209107F001F81199079809F001F83799082004F000C6
:2017C000F84F9809F001F9AAB00ABD802EAC0000B580B08890079106A8058002200090043E
:2017E000E7FF9804A90588094288DA36E7FF200090039002200143C09001E7FF98012802C5
:20180000DC1EE7FF980499011840900098002800D411E7FF9800A90588094288DA0BE7FFD3
:201820009807990000495A4198031840900398021C409002E7FFE7FF98011C409001E7DD68
:2018400098039902F000FAE299069A0400525288E7FF98041C409004E7C3B008BD80477055
:20186000B570B0824602A80170029100210056402800D416E7FF2400A9015708220343D306
:2018800040184A1758805709078C0EE524FF40AC43A09C0001A4B2E440AC43204019508888
:2018A000E01AA9017808240F40203808220343D340184A0A588025005749078D0EEE25FFF9
:2018C00040B543A89D0001ADB2ED40B543284021390840195088E7FFB002BD70ED1CE0005D
:2018E000E400E000B4FC270107FF0006404E0FF607F6020200430E1BD02D433A2BFFD02D9F
:20190000020C004D0E2DD026433C2DFFD0261B5B200021200864085242A2414042A2D300E1
:201920001B123901D0042A00D0010052D1F440884238D10100403B013080D3013301E00032
:201940000040337FDD072BFFD2080A4005DB43184330BCFC47702000BCFC477020FF05C0D3
:201960004330BCFC47700000B5F81C45780023002B08D032782F07C2D10C786A240F4014F1
:201980001CE42C12D10B2402572EB2F42E00D4081CEEE00E1C6D1C4A700F4611E01A1CAE51
:2019A000E0081D2E78ED9500257F402C9D0001ED192C3412013D091219524D0942AAD00EF0
:2019C00043D22C00D0055C8D1C4F700D1E644639E7F7463508401C5BE7CA4628E7C5BDF887
:2019E0000FFF0000B580B088491A481B9007F000FBAF98072200920592019200230193063B
:201A00000459F000FA7F9B05990698079304060991039302930193004619461AF000FAE49F
:201A2000990698070409F000FEB79807F000FEE099069807F000FD14990698070209F000D1
:201A4000FEE598072102F000FF5F9807F001F866B008BD802EB4000020004000B580B08405
:201A60002009F000FF9B200AF000FF98201421029102F000FEE799022015F000FE4D230015
:201A800093002001040220314619F000FCA3201AF000FF78201BF000FF75201EF000FF726E
:201AA0002038F000FF6F480790034907F001F86D98034906F000FF9698034905F000FF4A57
:201AC000B004BD802000400A0C000040400004004C000440B580B08648179000F000FF6AD8
:201AE00048169001F000FF6648159002F000FF9E48149003F000FFEE200107809004F0002E
:201B0000FF1D48119005F000FF199800F000FF2E9801F000FF2B9802F000FF7C9803F000BB
:201B2000FFCD9804F000FEFE9805F000FEFB2010F001F8ECB006BD800000400A2000400A1F
:201B4000A00040868000401020004000BE004770B40C4B1B004A1AD2D21B0D00030A4310C4
:201B6000220102121880D3020840031218890A402900D502220107D2431000490D49223831
:201B800001121A89D40C29FFD20D05C94308BC0C477043DB401A4302D00543D8BC0C4770E4
:201BA0002000BC0C47700FC907C920FF05C04308BC0C477046C046C046C046C046C046C00C
:201BC0000000FFE0B0859004202690009904205043489003481668009002E7FF481468005A
:201BE0009001980199024288D01FE7FF980199024288D207E7FF980299011A419800184045
:201C00009000E009480B680099011A4099021841980018409000E7FF9801900298009903E3
:201C20004288D301E7FFE001E7FFE7D7B0054770E018E000E014E000B5F04B16461D3D08D5
:201C4000682E240143A6602E681E2703033F43BE403818306018681826FF43B0B2C91840BC
:201C60006018682843206028681D2A00D00E480A022107224315601D6802420AD10568027B
:201C8000420AD1026802420AD0F6BDF007204385601DBDF00110400B0204400BB5F846043F
:201CA00068022501461043A81A402810D3211866380860B0360843A8183737084A0E480F99
:201CC0002A07D9011810380891004287D20D783807C0D10A4638F000FE09683043E9400885
:201CE000683A400A1880300860304630F000FCB49A00432A6022BDF80400000011282020C7
:201D0000B083B51EAC05C40E9001480F680047804A0E69901C40D00DA9059102480C900074
:201D200032184B0CA801F7FEFB2B4604480A68004780E004480868004780200043C4462083
:201D4000BC1EBC02B003470811042020100020202D2900002D21000011082020B580B082E0
:201D600020009001F000FE4A200190000240F000FCE39801F000FD74F000FF72F000FF105E
:201D80009A0020030300210AF7FFFF564808F7FFFAA72010F000FD72F000FF0CF000FF6845
:201DA0009801F000FCD99801F000F98EB002BD802DB00000B580B084491148129002F0004A
:201DC000FD6B98024910F7FFF9319802F000FEFC98022100910122019203F000FC15990164
:201DE00098029A03F000FA8C98029A03210CF000FC0B980299032202F000FA82B004BD8024
:201E00002DF10000A00040862E3C0000B51C2900D022084C2900D5004249104240542800FD
:201E2000D50042402300000A4290D9010052E7FB4290415B4290D3001A804291D201085291
:201E4000E7F600192C00D50042400064D5004249000200080011BD1C00012000F7FEFD71CD
:201E6000BD1C0000B580B082490F48109001F000FEDB9801490EF000F90398012100F00092
:201E8000FC9A98012115222DF000F888980121010289F000FD0F200F2102F7FFFCE198011E
:201EA000F000FE47B002BD802EAA0000800040102EA00000B580B084900391029803F0006E
:201EC000FF0546698008A90120008008E7FFA8018800466988094288DA0DE7FF9803A90142
:201EE00088095C414806F000FC47E7FF98011C40A9018008E7EB46688800B004BD8046C027
:201F000080004010B510B0849C079C0690039102920193009803490A184099029A01431197
:201F20009A0043114A07F000FB1F98034906184099069A0743114A05F000FB16B004BD10B1
:201F400011040000000100131108000000071F1FB5F0B081460668536894899589D090001A
:201F600069176950431C432C433C9B00431801004320010B18F3240902645118781078521C
:201F80000089187143024804580B24BF43A34022189A500AB001BDF011100000B580B0841C
:201FA0009003910292019803490B184099024A0BF000FADA9803490A18409901223FF0003C
:201FC000FAD399034A071888588922014011F000FACBB004BD8046C011100000FFFF000087
:201FE0001114000011040000B510B0859200460298009C0B9C0A9C099C089C079204AA03BF
:20200000701190029301980299014308990743089908430899094308990A4308990B4308F9
:202020009904781200921889222301D25088B005BD100000B50C004A0D522303021B33FFF5
:202040001AD2D313231F1A9AD912468E02C9230107DB431940D12A0BD202321540D0430117
:2020600046732B00D50042490008BD0C2000BD0C000B200107C02B00D4003801BD0C00006E
:20208000B5702211021318C258C4250143AC50C4880C788D4325888C432C58C54E08402E4F
:2020A0004D084025197450C4798879CB43037A0843186851237E4399401818086050BD70D2
:2020C00098E7FFFD67180000B510490E4A0E2301055C609068084220D10568084220D102D0
:2020E00068084220D0F66810041B43036013680806C0D405680806C0D402680806C0D5F6DC
:20210000BD1046C00204400B0104400BB40C2900D416004A0D522303021B33FF1AD2D30F8C
:20212000231F1A9AD30F02C9230107DB431940D12A0BD202321540D043010008BC0C47705E
:202140002000BC0C477020001E40BC0C47700000B5F02211021318C2780C4D0B59464F0B47
:2021600040372603402619BC26A9063619A45144684C58C52607063643B54034192C50C428
:2021800078486110BDF046C008080000FFFC00FFB51C000AD0172300240107E442A0D200A8
:2021A00000044294D9010052E7FB4290415B4290D3001A804291D2010852E7F60019000292
:2021C00000080011BD1C00012000F7FEFBBABD1CB40800430E1BD00F2BFFD011210701C965
:2021E000185B0FC102C9430B0001074802490B09051B4319BC08477021002000BC08477021
:20220000000102400DC900C91DC90509BC084770B580480A88002804DC0FE7FF4807880189
:202220001C4980018800004148055A414805800188014805F000FC06E7FFBD8011122020EB
:2022400010F0202011102020A0004086B406229E2800D402D104BC0647704241D404E00076
:2022600000013A010049D5FC3180D3013201E00000490A4905D243112800D502220107D2AE
:2022800043110008BC064770B570480A4C0A4284D00C4D0A4E0A42B5D008682A68691C50AD
:2022A0007812009258A247903508E7F4BF00BF00BD7046C02F0C00002F0000002F140000BB
:2022C0002F240000B4FC0C020C0B24FF022434FF40204021000C43440015435D0006435EAA
:2022E000000F43570C320C3B18A818C00432043B250018A1416818C94168BCFC4770000023
:20230000B0869200460A99009201460298019205AA047010A803700199054B0618C9910254
:202320007800210F40089902781200925088B006477046C004440000B50600410E09397F98
:20234000D40D221F1A51D90C46860200220107D2431040C846722A00D5004240BD062000CA
:20236000BD060002200107C02A00D4001E40BD06B580F7FFFBAFF7FFFB71F7FFFCEFF7FF83
:20238000FD19F7FFFD6FF7FFF9DBF7FFFB2BF000FCABF000FC7D4902229C20005488BD809D
:2023A00016282020B0859200460A99009201460298019204AA037010A80280018800990468
:2023C0007812011218894A025088B005477046C0120C0000B510B0849C06900391029201B7
:2023E0009300980299014308990043089906430821814308990300894A015088B004BD1047
:2024000080044042B580B0824809F000FC04280BD10AE7FF4806F000FBE14601A80170019F
:202420007800F7FFF8E9E000E7FFB002BD8046C080004010B58020010780F000FBE32806E9
:20244000D107E7FF4904200070084804F000FB2AE000E7FFBD8046C0111A2020A00040869E
:20246000B580B0849101460198019103A902700898034A051880780902C9221F02D2F000F7
:20248000F873B004BD8046C011080000B081460146687001210056402800D409E7FF4668DA
:2024A0007801201F40012001408849026008E7FFB0014770E280E000B08146014668700160
:2024C000210056402800D409E7FF46687801201F40012001408849026008E7FFB0014770C9
:2024E000E280E000B081460146687001210056402800D409E7FF46687801201F4001200199
:20250000408849026008E7FFB0014770E100E000B081460146687001210056402800D409DE
:20252000E7FF46687801201F40012001408849026008E7FFB0014770E100E000B404220485
:202540002800D1022100BC044770D501320842400212321F00011E520049D3FC05080B0947
:2025600005124311BC044770B08490039102920198036800900098009901438890009800D4
:2025800099029A014011430899036008B0044770B0849200460298009203AA027011900101
:2025A000980199037812011218894A025088B004477046C012080000B08492004602980053
:2025C0009203AA0270119001980199037812011218894A025088B004477046C0120400008A
:2025E000B081900049052004600898001E4049046008490420006008B0014770E010E00088
:20260000E014E000E018E000B0849003A8027001920199034A05188991009B0199007800CF
:202620000082588843185088B004477010580000B402219E2800D405D101BC02477039013B
:202640000040D5FC3080D3013101E00000400A4005C94308BC024770B5B0680122014391F6
:202660004B06681C2C00D00668254395428DD20234084623E7F560846018BDB01768202072
:202680004808F3808808BF00BF00F000FB8C2800D001F7FFFDF92000F7FDFD122001F000D9
:2026A000FB4746C080002020B0839100460198009102A90170089802780901091841200913
:2026C00002425888230243185088B003477000002800D10121004770B40422040212321FFF
:2026E00000011E520049D3FC05080B0905124311BC044770B5B0460420002B00D008B2D2F8
:20270000780D70254295D0041C641C491E5BD1F7BDB01C60BDB00000B0829001910098008C
:2027200049034308990100894A025088B00247700080000480044042B580B0824601A80171
:2027400080018801200F02024802F7FFFF0DB002BD8046C00104400BB580B0824601A80154
:2027600080018801200102424802F7FFFEFDB002BD8046C00138400B4A06188068020612CC
:20278000D50568020612D50268020612D4F66181477046C011080000B580B0829001910079
:2027A0009801211102091840990022010412F7FFFEDBB002BD80B580B08290019100980139
:2027C0002111020918409900220303D2F7FFFECCB002BD80B082900191009B0099014A034C
:2027E000588843185088B002477046C010480000B081900099004A0458882301021B4318DB
:202800005088B001477046C011080000B082900191009B0099014A03588843185088B002BE
:20282000477046C010880000B082900191009B0099014A03588843185088B002477046C0EB
:2028400010280000B08290019100980021804308990100894A015088B002477080044042B3
:20286000B580B0824601A8017001780148022203F7FFFE7AB002BD800100400BB580B08298
:202880004601A8017001780148022230F7FFFE6CB002BD800104400BB5102201031218838B
:2028A000780C609C784B508378894A015081BD10110C0000B082900191009B0099014A0325
:2028C000588843185088B002477046C010280000B580B08290019100A80178014802F7FF53
:2028E000FF4B9801B002BD80800040104A0568132B00D0064611461A32084283D1F7688005
:202900006008477017682020B0829001466870017800210F40089901220102925088B0022C
:2029200047700000B08190009900200102C248025088B001477046C000012600B081900029
:2029400099004A0248025088B0014770080400000003B100B08290019100980099014A0276
:202960005088B002477046C012D00000B08190009900200102C248025088B001477046C05F
:2029800000012600B0819000980000814A0220815088B001477046C080044042B08190003C
:2029A000980000814A0220005088B001477046C080044042B081900099004A02480250887E
:2029C000B0014770080400000003B100B08290019100980099014A025088B002477046C0B6
:2029E00012900000B08290019100980099014A025088B002477046C012900000B081460102
:202A000046687001780049026008B001477046C00308400BB08190009900200102C248021F
:202A20005088B001477046C000012600B081900099004A0248025088B001477008040000ED
:202A40000003B100B08290019100980099014A025088B002477046C018080000B0829001C6
:202A60009100980099014A025088B002477046C018080000B081900099004A035888230135
:202A800043185088B001477018040000B081900099004A035888230143185088B001477039
:202AA00018040000B081900099004A035888230143985088B001477018040000B081900057
:202AC0009900200102C248025088B001477046C000012600B081900099004A0248025088F9
:202AE000B0014770080400000003B100B5804A0348032100F7FFFA2CBD8046C02DF4000040
:202B0000A0004042B5804A0348032101F7FFFA20BD8046C02E0C0000A0004042B081900034
:202B20009900201102025888230143185088B0014770B08190009900201102025888230195
:202B400043185088B0014770B580B082200F9001F7FFFCB29801F7FFFCDBB002BD80B58085
:202B6000B08290019901207D00C04348F7FFF82AB002BD80220358802800D0051E401C4A4B
:202B80002300700B4611E7F74770B0829001910098009901229501525088B00247700000DA
:202BA000490368082201021243906008477046C00108400B49036808220103124310600827
:202BC000477046C00104400BB081900099004A0220015088B001477011080000B081900007
:202BE000980049025840B2C0B001477011240000B0829001910098018800990088091A4052
:202C0000B0024770B08190009800218101495840B2C0B0014770B08190009800218101494F
:202C20005840B2C0B0014770B510220103121883780C609C78495081BD10B5102300429AE7
:202C4000D0035CCC54C41C5BE7F9BD10B580460B210358421DC14618F000F85EBD8000003A
:202C60004902680822014390600847700108400B490268082210431060084770013C400B49
:202C8000490268082205431060084770E010E000B580207D0200F7FFFCA3F7FFFFF1BD8084
:202CA0006828210143C940086822400A47700000460B4611461AB580F000F80FBD802100F1
:202CC0005C421C492A00D1FB1E48477021005C421C492A00D1FB1E4847702300429AD002D6
:202CE00054C11C5BE7FA4770B580F7FFFEFFF7FFFF09BD80460A2100B580F7FFFFEEBD8087
:202D0000B58046012008F7FEF80BBD801E811F09BF00D2FC47700000B580F7FFFF8EBD80DA
:202D2000B580F7FFFDD5BD80B580F7FFF8C3BD80F000F80DE7FEBE004770BE004770BE00B4
:202D40004770BE004770BE004770BE004770BF004770BE004770BE004770BE004770BE00CA
:202D60004770BE004770BE004770E4894770BE004770BE004770BE004770BE004770BE00FC
:202D80004770BE004770BE004770BE004770BE004770BE004770BE004770BE004770BE008B
:102DA0004770BE004770200147700000000000001F
:202DB0000001000000000000000000000040000000000000000000000102000000010000BE
:202DD00000000000003441C4747372612E743074742E7478223D745372612174FF22FFFF6F
:202DF000080000000017000000002000000000000100010000000000000000030018000067
:202E10000000200000000000010001000000000000000003747372612E743074742E7478EF
:202E3000223D6F44656E2221FFFF00FF00020000031F000000000000000000000000000039
:202E5000646120643073692E2C642C316425FFFF00FF646120643073692E2C642C30642574
:202E7000FFFF00FF3130333235343736393862616463666570006761206561776576FFFF75
:202E900000FF306E762E6C61253DFF64FFFF000000000018000030000000000806000000FB
:102EB000000000000600000000000000000000000C
:202EC00055000000810F1220E0FFFF0101EFFF2215E0FF0201EFFF24FFE00000EFFF010212
:202EE0007E7F4FFFF3001F018703B7131F3F0AEF5FF60018E8330301EFFFFF0100F000005F
:202F0000196900002C4D00002B75000000020000024500002EC00000000020202F0C000064
:082F200015282020000000002C
:00000001FF
