:20000000800020205B3700005B1F00005B13000000000000000000000000000000000000A6
:200020000000000000000000000000005B43000000000000000000005B2F00005B470000F6
:200040005B0700005B0B00005B6300005B6F000051A500005AF300005AFB00005AFF00005F
:20006000000000005B3B00005B3F000000000000000000005B6700005B6B00005175000002
:200080005B5300005B5B00005B4B00005B4F00005B5F00005B570000000000000000000040
:2000A0005B1700005B1B000000000000000000005AF70000000000005B3300005B0300001B
:2000C000B5F0B0BD930292039001460A911C08D300D4200746154385953401189023201890
:2000E00090084606435E015F2028900743589021203090064358902020389005930943589B
:20010000901F23009D01921E941D96249722953C9333983C6805983C19C09037983C59C65C
:2001200046284631F003FC6F902F46284631F003FC6590329934983C1840903A983C58468D
:200140009921983C1840903B983C584746304639F003FC59902E46304639F003FC4F90308D
:200160009923983C18409035983C58479920983C18409036983C584446384621F003FC432D
:20018000460646384621F003FC3990319824993C180890399824993C580C991F983C1840F2
:2001A0009038983C584546204629F003FC2C460746204629F003FC22902D9C2F462046317E
:2001C000F003FC1C902B46204631F003FC1C46049D2E46284639F003FC11902C46284639C6
:2001E000F003FC11460546204629F003FC0C993C600846204629F003FC0199229A3C5050B1
:20020000983C68449837684546204629F003FBFB902846204629F003FBF1902F983A68457A
:20022000983B684646284631F003FBED902646284631F003FBE3902A98356846983668475F
:2002400046304639F003FBDF460546304639F003FBD5902E9839684798386844463846213A
:20026000F003FBD1460646384621F003FBC790299C2846204629F003FBC19027462046294C
:20028000F003FBC146079C2646204631F003FBB6460546204631F003FBB646044638462124
:2002A000F003FBB1993C604846384621F003FBA6993760489C2B46204629F003FBA4993C2E
:2002C0009A23508846204629F003FB98993C9A2050889D2746289C2C4621F003FB8F99351B
:2002E000604846204629F003FB8E993660489C3046209D2D4629F003FB814949460EF003DB
:20030000FFD3903746204629F003FB7D46354631F003FFCA46079C2A46209E294631F003AC
:20032000FB6D4629F003FFC0903046204631F003FB6A4629F003FFB846069C3246209D37D2
:200340004629F003FB5B903546204629F003FB5B902D9C3146204639F003FB509037462028
:200360004639F003FB5090329C2F46209D304629F003FB44903646204629F003FB44460547
:200380009C2E46204631F003FB39460746204631F003FB3946069C2D46204631F003FB332B
:2003A000993C9A34508846204631F003FB27993C9A1F50889C3546204639F003FB24993CCD
:2003C0009A215088462046399F22F003FB17993C9A24508846289C324621F003FB0F993A01
:2003E0006048462046299D3CF003FB0D993860489E3646309C374621F003FB00993B604845
:2004000046204631F003FAFF9B339A1E991C9C3960609C1D189B192D428BD203E67746C08C
:2004200004F33F352A40D200E2AC9802B2809004980900C0900D270022019D01920C980407
:20044000183F00F998031842923C5841911B013A1881913B5881911A9B08437B18C258C1CC
:200460009119017C1903590191189C07437C1901590494179C06437C1906590494169C058A
:20048000970B437C190759009015983C68409014983B684090136850901268589011684834
:2004A00090106870900F6878900E950A990C9134953C68AC9822182890356886462046312F
:2004C000F003FAA1903046204631F003FA979033983C990D184090386884983C992118403E
:2004E000903A688746204639F003FA8D902F46204639F003FA839031983C99231840903661
:200500006887983C992018409037688546384629F003FA79460446384629F003FA6F9032AB
:20052000983C99241840903B6885983C991F18409039688646284631F003FA65460746288D
:200540004631F003FA5B902E9D3046284621F003FA55902946284621F003FA5546049D2F54
:2005600046284639F003FA4A902B46284639F003FA4A460546204629F003FA45993C608869
:2005800046204629F003FA3A902A983C68C4983568C546204629F003FA3690284620462926
:2005A000F003FA2C9030983868C4983A68C546204629F003FA28902746204629F003FA1EE6
:2005C000902D983668C5983768C746284639F003FA1A460446284639F003FA10902F983BAB
:2005E00068C7983968C646384631F003FA0C460546384631F003FA02902C9E284630462151
:20060000F003F9FC902646304621F003F9FC46049E2746304629F003F9F146074630462974
:20062000F003F9F146069D2946284639F003F9EB902846284639F003F9E1902946204631FF
:20064000F003F9E1993C60C846204631F003F9D646049E2646309D2B4629F003F9CF902704
:2006600046284631F003F9CF902B9E1846309D2A4629F003FE1990269F1146384621F00375
:20068000FE13902546304621F003FE0E460446384629F003FE09460698269925F003F9B320
:2006A0009D3560A846204631F003F9A860E89E1A46309C284621F003FDF790359F13463872
:2006C0009D274629F003FDF0902A46304629F003FDEB460646384621F003FDE64607982A77
:2006E0009935F003F9909C3660A046304639F003F98560E09E1646309C294621F003FDD41E
:2007000090369F0F46389D2B4629F003FDCD903546304629F003FDC8460646384621F0036D
:20072000FDC3460798359936F003F96D9C3760A046304639F003F96260E09C3146209D2E63
:200740004629F003F95B4E904631F003FDAD903646204629F003F9574631F003FDA5903542
:200760009C2D46209D2C4629F003F9484631F003FD9B460746204629F003F9454631F0031F
:20078000FD9390319C3346209D364629F003F936903746204629F003F93646049D3246282A
:2007A0009E354631F003F92A903646284631F003F92A90339D3046284639F003F91F902ED2
:2007C00046284639F003F91F902D9E2F46309F314639F003F913460546304639F003F91394
:2007E000460646204631F003F90E903046204631F003F90490329C3746204629F003F903F0
:20080000903546204629F003F8F990379E2D46309D334629F003F8F2460446284631F00314
:20082000F8F290319E2E46309D364629F003F8E6903346284631F003F8E690369F1B463841
:200840009E304631F003FD30902F9D1446284621F003FD2A902E46384621F003FD254604D2
:2008600046284631F003FD204607982F992EF003F8CA9D3860A846204639F003F8BF60E83F
:200880009E1546309C324621F003FD0E90389F0E46389D314629F003FD0790304630462930
:2008A000F003FD02460646384621F003FCFD460798389930F003F8A79C3960A046304639E7
:2008C000F003F89C60E09E1746309C354621F003FCEB90399F1046389D334629F003FCE40C
:2008E000903846304629F003FCDF460646384621F003FCDA460798399938F003F8849C3A4F
:2009000060A046304639F003F87960E09E1946309C374621F003FCC8903A9F1246389D3654
:200920004629F003FCC1903946304629F003FCBC460646384621F003FCB74607983A993977
:20094000F003F8619C3B60A046304639F003F85699349D3C60E0981E1809981D182D981CD3
:200960004281D200E5A39A0C1C529D0A3508980942829F0BD000E561980200C090029A09AE
:20098000F7FFFBA5B03DBDF004F33F35B5F0B0AB88040862921E0095194A92031953930486
:2009A000195E9605952790006840900208A09001680C460E912A595746204639F003F82340
:2009C000902846204639F003F819902668749F04687D46204629F003F816902946204629F8
:2009E000F003F80C4605901F9803684191259826F003F809990568499124F002FFFF9023B3
:200A00009E27982A598446284621F002FFF759BD4629F002FFF8902298284621F002FFEE8F
:200A20004629F002FFEB902198299F254639F002FFE59E244631F002FFE1902098264639E8
:200A4000F002FFDC4631F002FFDE4606981F4621F002FFD94629F002FFD190269828462141
:200A60009F27F002FFD04629F002FFCD9C2A602098299925F002FFC79924F002FFC4990337
:200A80009B049A056060982351E098226048982151C89820605851DE9826605098011E80F4
:200AA0000845D100E212991E01081F0090293F08220C434A3A0800C9390824004626462345
:200AC000951C941D97279D2A9802931A18C39319961B19839317192E1900901398031900B3
:200AE000902198041903980519009024982918289012922618A8902519E890209128186869
:200B000090234637961168B4461E9318689D46204629F002FF78901F46204629F002FF6EAD
:200B2000901E68FC68F546204629F002FF6C902246204629F002FF62460690169C2168E142
:200B4000910E981EF002FF5F9D2468EF4639F002FF55901068A446304621F002FF4F68AD35
:200B60004629F002FF50900F981F4621F002FF464629F002FF43901598229E0E4631F002BA
:200B8000FF3D4639F002FF3A9014981E4631F002FF354639F002FF37901E98164621F0021C
:200BA000FF324629F002FF2A9016981F4621F002FF2A4629F002FF279C1160A09822463136
:200BC000F002FF214639F002FF1E60E0982A99275844982A9926584546204629F002FF1320
:200BE000901F46204629F002FF0946069009982068449825684546204629F002FF04900A60
:200C000046204629F002FEFA4604901198236845982A99295841910846289506F002FEEE25
:200C2000460190074630F002FEEE900C982A9928584746204639F002FEE199121F09912288
:200C4000680C4621F002FEDF900B981F4639F002FED54621F002FED2900E9E0A4630462900
:200C6000F002FECC9D084629F002FEC8900D98079909F002FEC3901246204639F002FEBE26
:200C80009911F002FEBB901146309906F002FEBB4629F002FEB899206048982A992858410A
:200CA000981FF002FEB099226809F002FEAC992A9A2750889813688468C59E10463046216A
:200CC000F003FAF290209F0F46384629F003FAEC901F46384621F003FAE790134630462921
:200CE000F003FAE246069820991FF002FE8C9F2160B898134631F002FE8160F89F0B463802
:200D00004629F003FAD190219E0C46304621F003FACB902046304629F003FAC646054638A5
:200D20004621F003FAC1460498219920F002FE669923604846204629F002FE65992A9A2879
:200D400050889817690569449E1546304629F003FAAB90239F1446384621F003FAA5902133
:200D600046384629F003FAA0902046304621F003FA9B460698239921F002FE459F1860B81F
:200D800098204631F002FE3A60F8200107C19F0D40794628F003FA8890239E0E4630462135
:200DA000F003FA82902146304629F003FA7D460546384621F003FA78460498239921F0027E
:200DC000FE1D9925604846204629F002FE17992A9A2650889819698469C59E1E46304621F6
:200DE000F003FA6290259F1646384629F003FA5C902346384621F003FA5790214630462992
:200E0000F003FA52460698259923F002FDFC9F2460B898214631F002FDF160F89F11463872
:200E20004629F003FA4190259E1246304621F003FA3B902446304629F003FA364605463826
:200E40004621F003FA31460498259924F002FDD699299A2A505046209C1D9F2746299D1C51
:200E6000F002FDD1992260081E6D9B1A33189E1B361034089829380890293F089A263A08C6
:200E8000992839082D00D000E61A980218C19120311891211981911E3110911F992A190915
:200EA0009124460B33081900901B3008901C98031900902930089027980419029228320842
:200EC00098051906463030089025E01C4610300890254616461A32084608300890279802E7
:200EE000460F46013108911C461D4623330846013110911F460131189121972995289020C2
:200F0000901E901B94249318921D9626681C681546204629F002FD77902346204629F002F4
:200F2000FD6D4607901A982468C4982868C546204629F002FD68902246204629F002FD5E7B
:200F400046049019982968C191134638F002FD5B68F54629F002FD52901598276806462003
:200F60004631F002FD4B9925680F4639F002FD4B901498234631F002FD414639F002FD3E20
:200F8000901798229C134621F002FD384629F002FD359016981A4621F002FD304629F002E1
:200FA000FD32901A98194631F002FD2D4639F002FD25901998234631F002FD254639F00221
:200FC000FD2299186008982968C19822F002FD1B992668C9F002FD17992460C8981C68062E
:200FE000981B68C49D1546284631F003F95D90249F1446384621F003F957902346384631FB
:20100000F003F952460646284621F003F94D460498249923F002FCF799276008463046218C
:20102000F002FCEC992960C8981F6806981E69449D1746284631F003F93790299F164638BC
:201040004621F003F931902746384631F003F92C460646284621F003F92746049829992749
:20106000F002FCD1991D600846304621F002FCC6992860C898216806982069C49D1A4628E8
:201080004631F003F91190299F1946384621F003F90B902846384631F003F9064606462836
:2010A0004621F003F901460498299928F002FCAB9925600846304621F002FCA0992660C8FF
:2010C0002404982A9E0146319A024623F7FEFFF89D00686A980346314623F7FEFFF1686A7E
:2010E000980446314623F7FEFFEB686A980546314623F7FEFFE5B02BBDF04770B580B08CBD
:201100002000900BF003FFEC20C89008F004FBDFF004FBD29808F004FBDAF002FE5320015A
:20112000058148B8F004FB0AE7FF48B7784006002800D400E0D348B578002801DB13E7FF6C
:2011400048B378002801D10EE7FF2014F004FBBF48B0780007C02800D104E7FF49AE20011A
:201160007008E7FFE7FF48A978002801DB54E7FF48A778002802D14FE7FF2014F004FBA723
:2011800048A6F003FC1B207D0080F004FBA02000900AE7FF980A21FF31F44288DC3BE7FF5D
:2011A000980A004148B25A40F004F880220092054BB09304F002F95E9A054BAF9306F00294
:2011C000FB3DF003FD95460148ACF003FBF720059007F004FB7C980A004148A95A40F004A9
:2011E000F8659B049A05F002F9459A059B06F002FB25F003FD7D460148A2F003FBDF9807C8
:20120000F004FB65990A48A0F003FBD8E7FF980A1C40900AE7BEE7FF487C78002801DB12CE
:20122000E7FF487B78002803D10DE7FF2014F004FB4E487BF003FBC2207D0080F004FB4767
:20124000F002FC48E7FF487178002801DB3EE7FF486F78002804D139E7FF2014F004FB3774
:20126000487078011C49700178002805DB04E7FF496C20007008E7FF486A780090032804E1
:20128000D82298030081A0015840468712A1000012A9000012B1000012B9000012C1000063
:2012A0004865F003FB8BE0104862F003FB87E00C485FF003FB83E008485CF003FB7FE00418
:2012C0004859F003FB7BE000E7FFE7FF494E20006008484F21010209F004FBC2E7FF484E48
:2012E000780007C02800D01EE7FF4954200170084953700849482000700849527008495292
:201300008008485288004952910180084851F003FB559801880148509002F004FA57980267
:20132000F004FA6CE7FF4845780007C02800D164E7FF4843780007C02800D05EE7FF4940CF
:2013400020007008483F780007C02800D105E7FFF002F91649416008E7FF483A780007C0B1
:201360002800D049E7FF483D68002802D344E7FF4828780007C02800D008E7FF492520000F
:201380007008F001FD1149356008E03448336800F004F856220092004B31F002FA4F460204
:2013A0009800460B492FF002F8659A004B2EF001FACAF003FC9D4601A80980018800284FB1
:2013C000D30EE7FFA809880049284288D808E7FF9909481F80018801481FF004F9F7E7FFC8
:2013E00049162001700849167008490A7008481AF004FA04E7FFE7FFE7FF200AF004FA67CE
:20140000E69346C02000400A541820204314202040082020543A2020543D2020936B00007B
:20142000934000005439202091FB0000924D0000921700009232000091DC000054382020FB
:20144000543C2020543B20205430202054082020542E202092680000A000408654142020C3
:201460002000406812D041930000BFF0FFEF000043182020FE0040AFE000406F930A00009D
:201480004B18202092F8000093780000B5F0B09D880400A3910C18C9910D90006842086035
:2014A00090012C08D200E13998010081980D1840900A980C1840900908E00100900220009A
:2014C000920B901C9D0C182F9E09991C18719113981C181090199B0D981C1819911A9A0AE9
:2014E000981C1810901B9C1C592C9403687C940468BC941168FC94059C1C591C9406684BD5
:20150000930E688B931068C9910F991C587191169D136869911868A9911468E99108991C1F
:2015200058519112684191156881911768C090079D0346284621F002FA66991C9A0C5050FE
:201540009E044630990EF002FA5E607898119910F002FA5960B89C054620990FF002FA530D
:2015600060F846289906F002FA4990064630990EF002FA44900E98119910F002FA3F901132
:201580004620990FF002FA3A901098169912F002FA3A991C9A09505098189915F002FA3383
:2015A0009C13606098149917F002FA2D60A09D0846289F074639F002FA2660E09812991664
:2015C000F002FA1C901398159918F002FA17901698179914F002FA12901846384629F00278
:2015E000FA0D9017980B991C5846981968449D06462846319615F002FE5790149F0E4638A1
:201600004621F002FE51901246384631F002FE4C460646284621F002FE4746059814991255
:20162000F002F9F1990D9A1C508846304629F002F9E5991A60489F1346384621F002FE34CF
:2016400090149E1646309D154629F002FE2D901246304621F002FE28460446384629F002BE
:20166000FE23460798149912F002F9C8990A9A1C508846384621F002F9C6991B604898191E
:20168000688668C59F1146384631F002FE0D90199C1046204629F002FE07901646204631E9
:2016A000F002FE02460446384629F002FDFD901598199916F002F9A79F1A60B84620991599
:2016C000F002F99C60F89C1846204629F002FDEC901A9F1746384631F002FDE69019463876
:2016E0004629F002FDE1460546204631F002FDDC4604981A9919F002F9819F1B60B8462066
:201700004629F002F9809A0B60F8981C3010901C9802991C4288981CD000E6D22402980C33
:201720009D0146294623F7FEFCCB98006842980D46294623F7FEFCC4B01DBDF0B5F0B0FF35
:20174000B08C93044615460698909000918A68344620F004F9701820210091899002428412
:20176000D24422009285A885920373021C64460F1E6078002800D0342825D00660344629C6
:201780009A0447901C7F1C64E7F2980343C0900197891C60900360307820A9857308287316
:2017A000D109A98AAA8946289B04F000F82199899C039A01E011AC05A985AA8A4620F0001D
:2017C000F8354602462046299B0047981C419A014611D00019C191899C031C489802D1BE06
:2017E000E000463A4610B07FB00CBDF0460AE7F9B5F8460468081D05600D68062E00D011F8
:2018000094004614461D4630F004F9154607682019C06020240042BCDA075D30990047A8B9
:201820001C64E7F8200046214798BDF8B5F0B0859201460E4604207F008018252700970306
:2018400021FF910231FE22204620F004F8ED9504706F7B302825D0521C6B2878D0132864FD
:20186000D011286FD00F2863D1209A0168101D0160116801B2C8424741479A02461030FCE1
:2018800018207029E014461DA903AA0446309B01F000F83B980399042800D0031E48222DA9
:2018A000700AE00046089A02462BE00146289A021A1929004625DC011A611C4D1C41005350
:2018C000260046284632F003FDCD2F00D0021C417006E000460142A1D8061E481A611C493D
:2018E0002220F004F8A170261B2922204620F004F89B4620F004F89F19C0B005BDF02000C4
:201900007060202570202001E7F7B5F84614460D46067B074619F000F8147B312964D10492
:201920002800D5022101602942402F6FD001210AE00021082F78D10021104622F000F812CD
:20194000BDF87B002864D005286FD0032878D0012870D10468081D02600A68004770200076
:20196000477046C0B5F84614460D46062800D10468201E416021213070014F0A2E00D00D79
:2019800046304629F000F810460143691A715C7968221E53602370114606E7EF6820F0047A
:2019A000F84ABDF8931C0000B5802910D0032908D10308C0BD800900BD80F003FA47BD807F
:2019C000B5B0B0AE460C460191199832942D922C932BAA2A80102000604860089023E7FFCD
:2019E00098232802DC2EE7FF992D982300C218885889911768414608F002FC569917901813
:201A00004608F002FC519918F001FFFDF002FAD24981F001FFF8F000F9019923008AA9272B
:201A20005088992D982300C2188858896840F001FB819923008AA9245088E7FF98231C400D
:201A40009023E7CD98259924F001FFD8496FF002FFAB2800D006E7FF9824496DF001FFD370
:201A60009024E7FF98269925F001FFC84967F002FF9B2800D006E7FF98264966F001FFC358
:201A80009026E7FF982C8800F003FC8A9022982C8840F003FC859021982C8880F003FC8047
:201AA00090209829900099284608F001FFAC46019800F001FFA39927F001FFA59003982068
:201AC00099219101F001FF9A990190029822F001FF9546019802F002FBE746019803F0023C
:201AE000FCF5901F98299927F001FF8890049820900599229106F001FF8146019804F002D4
:201B0000FCE599054602980692089A1F9207F001FF7A46019807F002FBC746019808F00198
:201B2000FF6D901E981E210107C940489009991F4608F001FF6846019809F002FCC7901D1A
:201B4000981F900D991D910AF002FBAE990A900B981E9010F002FBA8990A4602980B920CF0
:201B6000F002FBA2990CF001FF4E9928F001FF4B4601980D910E9921910FF002FB95990FE8
:201B8000F002FB924601980EF001FF38990F460298109211F002FB8846019811F001FF2EF3
:201BA000901C981CF000F966901B98249015981D99229113F001FF22991590129826F00145
:201BC000FF1D46019812F002FB6F991390149820F001FF1446019814F002FC784601981543
:201BE000F001FF11901A981D992BF002FB5D9016A82A8800F003F9A646019816F002FC669C
:201C000099196008981A6048B02EBDB00FDB40490FDB40C90FDBC0C9BCCC2B8CB5F0B08513
:201C20004606209743C44D831C6F42BEDA0B0070D0422E00D500E0A1201306814630F00232
:201C4000FB334606E000341920FF05C04286DB0446304631F001FED7E0E815F1403548779D
:201C6000182A4017432F207F05C040780DD21861188F4973F001FEC74604200103C1187114
:201C80004A70400A0B912902D818260046204631F002FE622800D0772F00D100E0C74638A0
:201CA000F003F95046044970F002FAFE4605496DF003FF3B4629E7CD4E5FE0B80781462077
:201CC000F001FEA1460194034620F002FBFF46044638F003F9379004462094024621F00270
:201CE000FAE3460648581828900046304631F002FADB9701460748551B444955F003FF1115
:201D00004954F001FE804601F003FF0B46054952F003FF074951F001FE7646014630F002E6
:201D2000FAC39900430C4629F001FE6D46072C01DB4F203F06019C03F003FEF74601F00368
:201D4000FEF446064639F001FE5E460598012800D05C49459804F002FAA74607F003FEAE98
:201D60004639F001FE5046014630F001FE474621F001FE444604493B9804E043F003FE8E0C
:201D8000212160014E3AE05246204621F002FA8C46054936F003FEC9213F0609F001FE338C
:201DA00046014628F002FA8046052F00D0354638F003F8C84606492AF002FA76460146287C
:201DC000F001FE214621F001FE19460449254630E0189C0346204639F001FE1046059801F7
:201DE0002800D01D491E9F04F003FE9B4606F003FE654631F001FE074621F001FDFF46048B
:201E000049184638F002FA504621E00DF003FE5646014630F001FDF2E00446204629E003D3
:201E2000F003FE4C46014620F001FDE846064630B005BDF0FFFF007F0000FF80FB20004A5D
:201E40000000BF80C000007F5C30FFCFC28800359E263E78CE133ECCE9EE3E91AAAA3F2A63
:201E6000F7D1B71771803F31F7D13717AAABBEAA00007FC0B5F0B08546040FC5210107C870
:201E80004626438648774286D30620FF05C742BED92246204621E0D448734286D320487414
:201EA0004286D853207F05C09002270100AE487159814620F001FDA2496F5989462A970435
:201EC000407A1B5590039101F001FD9846044601F002F9EA4606E06CD11E2C00DB34E0BD68
:201EE000910449624620F001FD8E257F05EF4639F002FD5A2800D0050E302839D20205E902
:201F00004620E09E970246204621F002F9CD4606250095019503E04C460E49584620F002A7
:201F2000FD432800D005F003FDB921226001463CE09449534620F002FD1928004631D005A3
:201F4000F003FDAC212260012400E087910400A8494C580D494C4620F002F9A64629F00193
:201F6000FD52F003F8A14605F002FFEC46064947F002F99A46014620F001FD454604494446
:201F80004630F002F9914601940346209101F001FD3546044601F002F9874606207D43C067
:201FA0004285DD01207FE0022000900420E305C0900249384630F002F9774937F001FD2303
:201FC00046014630F002F97046014620F001FD16460746204639F002F96746062D00D0214A
:201FE00005E899021844200107804639F001FD0646014630F002FA6A46019801F001FCFE04
:2020000046019803F001FCFA267F05F1F001FCFB99042900D0182D80D11C4601F001FCF305
:202020000631E018200307814638F001FCEC46014630F002FA4B46014620F001FCDF217F62
:2020400005C9F001FCE0E0084621F002F92D211B05C9E0004621F002F92746044620B005B6
:20206000BDF046C0721842B172193EB1F2CA714915913F8592840000928C0000718042B1BE
:20208000F1B5C2CF92940000AA3B3FB87200BF31BE8E35BF5215BB35AA8F3E2AB5B0B09ABE
:2020A00090199118981821010789F002FA0F9017981790079819F003F97346019807F0029C
:2020C000FA05F002FFF14601A81680018800280BDB03E7FF200A9006E003A816880090069B
:2020E000E7FF9806A9168008495720008008A91520018008E7FFA8158800A9168809428821
:20210000DD00E09FA815880198194348901498140280F003F9459918F002F9D8F002FB84F9
:20212000F002FFC24601A813800188002801DA00E082A813880049454288DC7DE7FF9813F7
:202140001E40A90B80089813804898131C4080882000900AE7FF980A2802DC18E7FF990A7A
:202160000048AB0B5A1800C2483B588200CCA90D510A9A0A00545B1B00DB18C0684000D258
:2021800018896048E7FF980A1C40900AE7E39B18200102809000A808A90DAA0BF7FFFC10AB
:2021A00098154C299405882223149303461943514A2792045450980888254619436918518E
:2021C0006048A8138801008D492259498824436318D260918800492000C218885889684070
:2021E000F000FFA8491D9101F002F85E491C9102F002F96C9A0399049B05881B435A1889FE
:2022000060C899089809F000FF959901F002F84C9902F002F95B9B039A0446019805880473
:20222000436318D2611188011C4980018800280ADB01E7FFE006E7FFE7FF98151C40A91538
:202240008008E758B01ABDB0542A202001FF00004108202030002020000020200000433412
:202260000FDB4049B5FE46074606210107C8463D43850DEC2C99D30748694285D3174630F3
:202280004631F001FBC0E08D48574285D813495C4630F001FBB8217F05C9F002FB8521009D
:2022A00043C928009102D0482C73D37CE0452F00DC184E5DE077484D4285D815484F428560
:2022C000D82746284629F001FB9E494AF001FB9B460420010781F003FC26F003FBFB460641
:2022E0002000E0294E4FE05E48414285D81E4942F003FC19460420FF05814628F001FFD4E0
:20230000217F05C9F001FB7FF003FBE446062002E01291024937F003FC064604207F05C1FB
:20232000F003FC01F003FBD64606E00648314629F002F8CC46062003900297014630463193
:20234000F001FFB246044601F001FFAE4607492DF001FFAA492CF001FB5646014638F001E2
:20236000FFA3492AF001FB4F46014620F001FF9C460449274638F001FF974926F001FB4377
:2023800046014638F001FF904917428DD80D4621F001FB3946014630F001FF864601463068
:2023A000F001FB2C46064630BDFE9902008F491A59CD4621F001FB274601481859C4463021
:2023C000F001FF724621F001FB194631F001FB1646014628F001FB12460698012800D5E23F
:2023E000200107C04046E7DEFFFF3EDFFFFF3F97FFFF401B0000BF800000BFC0FFFF3F2F38
:20240000F2CA7149AC253D7CF50D3E11AAA93EAA1247BDDACA98BE4C91BC000091CC00002A
:2024200000017F800FDB3FC90FDBBFC9B5F0B08393024616460C46078800B2852A01D131E4
:202440000400D02F1E682103F002FD001C4A2A03D0014610E00020001D212D03D31297003C
:2024600096011A2B680E270107FF407E600E688E407E608E690E407E610E31181EDBD1F166
:202480009E019F002A03D00D680B220107D24053600B2801D006688B4053608B1E80311038
:2024A0002800D1F12DFFDD0D484F4285DD1A20010301428DD01D02C1428DD021028042851A
:2024C000D00BE0212D3FDC042D10D0062D20D017E01A2D40D00D2D80D11646384621F7FEDB
:2024E000FFD5E01120010201428DD00902404285D10A687A230146204629F7FDFDE1E003D7
:2025000046384621F7FEFA4298022800D00489B968BA4620F000FF242E01D1634628F0026F
:20252000FF3F4601207F05C0F001FFD02D00D05946061E682103F002FC891C482803D003CD
:2025400046072D03D203E02D27002D03D32A900197021BED68214630F001FEA660206861B9
:20256000200107C740794630F001FE9E606068A14630F001FE9960A068E140794630F00180
:20258000FE9360E069214630F001FE8E6120696140794630F001FE88616034181EEDD1D93A
:2025A0009F0298012803D01D68214630F001FE7C60206861200107C540694630F001FE74A7
:2025C00060602F01D00E68A14630F001FE6D60A068E140694630F001FE6760E01EBF341033
:2025E0002F00D1E1B003BDF003FF0000B5B0B08E900CA80B8001920A88002801DC04E7FF12
:20260000A90D20008008E0B6A80B880000401E80F003FA2C9009A90820008008E7FFA8080C
:202620008800A90B88091E494288DA10E7FF990CA80888000042188888405A891A40990966
:202640005288E7FF98081C40A9088008E7E79809A90B910188091E494B492202F000FC42F2
:20266000980188001E400FC11841220143911A402801D10CE7FF9809A90B88091E490FCA4F
:202680001889220143915A40A9078008E0109909A80B88021E900FC318C0230143DB40180F
:2026A0005A08401A5A8918400840A9078008E7FFA80790008800F002FDF94A324B32F00124
:2026C000F8BDF002FB1546019800AA0680118800F002FDEC4A2D4B2EF001F8B0F002FB0842
:2026E000A9058008A90420008008A9038008E7FFA8038800A90B88091E494288DA34E7FF98
:20270000A803880049230042188888405A891A41A80280018800A90588094288DB1EE7FF97
:20272000A8028800A90688094288DC17E7FFA803880100494A175A539C0AA904880D00AD64
:20274000536388000040188088409A0A880B009B18D2805098041C408008E7FFE7FF980328
:202760001C40A9038008E7C39809F000FFF39804A90D8008E7FFA80D8800B00EBDB046C06E
:2027800059490000999A999999993FF1CCCDCCCCCCCC3FEC42E82020B5704E6544B54966F2
:2027A0004469910A6008A91020008008E7FFA810880049534288DC19E7FF980A6800A910DE
:2027C0008809910900495A40F002FBBC4956F001FD6B4956F001FE7A9909008AA911508884
:2027E000E7FF98101C40A9108008E7E04845780220010281A811F001FDE3900FA90E20003C
:202800008008E7FFA80E8800493D4288DC13E7FFA90E88080083AA1158D200C3483B50C2E0
:20282000880900C9184120006048E7FF980E1C40A90E8008E7E648344934910722009208DC
:2028400023019306F7FFFDF29A06980749300292F000F9F69808A90D8008E7FFA80D8800AA
:20286000210102494288DC48E7FFA80D900588000081910448265840990FF001FE279B04CC
:20288000460198054A2350D188002801DB14E7FFA80D880049204288DC0EE7FFA80D8800C3
:2028A00000819102481B900358414608F001F8AB9A0299035088E7FFA90D9101880800C203
:2028C00048125882920C880900C918406840900B990C980BF000FC2E4910F001FCE549104B
:2028E000F001FDF499018809008A490E5088E7FF980D1C40A90D8008E7B04E0E44B5BD70D4
:2029000003FF0000543920209330000000002020200020203000202001FF0000000043349E
:202920000FDB40493804202033334053F000457FEFB8FFFF1048000010440000B4FC2401D5
:2029400007E44063E002B4FC240107E4B408031D08ED0DD643350256005F0D7FD106002CD5
:202960004334D000E0AEB001BCFC477008A443252407022434FF42A7D10520000D190509B7
:20298000B001BCFC47702B00D50324001BA641AC0025030B08DB0DC24313024200480D402E
:2029A000D107001C4314D000E08CBC0E0010BCF047702401076443232407022434FF42A0F7
:2029C000D10520000D090509B001BCFC47702900D50324001AA2419C00231BC1D508001C07
:2029E000002B002500140032002624001A6100382936D525B40239394249000C3C20D203FB
:202A0000002F408F4337E001003740A72F00D0012140430EBC022920D50B2900D00E424C11
:202A20003420B42040A5002CBC20410D40CE1936E0042900002E410D3920410E1992416B4E
:202A4000001C4314D03E24002B00D504240121001A8A4199000B1E400052415BD5FB2101C0
:202A600002890015400DD00C18522700417BD3011C40E00B210701C90015400DD101008976
:202A8000438A21070209438A0052415B1C80DD192107020931FF4288D309BC0E20000FC91E
:202AA000020931FF00C91DC90509BCF047700B190500430107E4432105180B124310B001C1
:202AC000BCFC477021002000B001BCFC47704770B580B08E900CA80B800188002800D104A7
:202AE000E7FFA90D20008008E0A3A80B900288000040F002FFBB9A02900A980A990C88123F
:202B00000052F002FFCF9902980A88094B4B2202F000F9E89802780007C02800D113E7FF7F
:202B2000990AA80B880220019001438218881E8088005A891840F002FA0599010789F00131
:202B4000FCC59009E009980AA90B8809220143915A40F002FC259009E7FF980A8800A9084D
:202B60008008A90720018008A90680089908AA058011A9048008E7FFA8048800A90B8809C8
:202B80004288DA3CE7FF980AA904880900495A40A90888094288D105E7FF98071C40A90739
:202BA0008008E00A980AA904880900495A40A9088008A90720018008E7FFA8078800A90682
:202BC00088094288DC0EE7FFA8078800A90688094288D10EE7FFA8088800A9058809428883
:202BE000DA07E7FF9807A90680089808A9058008E7FFE7FF98041C40A9048008E7BCA80618
:202C000088002803DB04E7FF9805A9038008E0099809213F0609F000FEF6F002FA45A903B1
:202C20008008E7FF980AF000FD959803A90D8008E7FFA80D8800B00EBD8046C05949000063
:202C4000B5F0B08391022A00D057461646051E502103F002F8FB1C482803D0014604E00010
:202C6000240028039600D109E044351098026047300890029E011EB61EA4D03B9601682EB4
:202C800068684601F001FB10460746304631F001FB0B4639F000FEB7460726004631F001F1
:202CA000FE792800D0034638F001F9844606980260062C01D01868AE68E84601F001FAF4C9
:202CC000460746304631F001FAEF4639F000FE9B460627004639F001FE5D2800D0C5463067
:202CE000F001F9684607E7C09E011E76350898021D00900298002803D20AB003BDF098023C
:202D000060869E011EF63518300C90022E00D0F49601682E68684601F001FAC64607463055
:202D20004631F001FAC14639F000FE6D460726004631F001FE2F28004630D0024638F001AF
:202D4000F9399902600868AF68E84601F001FAAC460446384639F001FAA74621F000FE5378
:202D600046074631F001FE1628004630D0024638F001F92099026048692C69684601F001B1
:202D8000FA93460746204621F001FA8E4639F000FE3A46074631F001FDFD2800D0AF463898
:202DA000F001F9084606E7AAB580B0844840494122010292F001FA30A90320008008A902F8
:202DC0008008A9018008E7FFA8018800493A4288DC2AE7FFA8018800004148365A40A903B3
:202DE00088094288DD08E7FFA8018800004148315A40A9038008E7FFA80188000041482D27
:202E00005A40A90288094288DA08E7FFA8018800004148285A40A9028008E7FFE7FF980136
:202E20001C40A9018008E7CFA8038800A902880918400840492180084921200080084921D1
:202E400080084921700849218008E7FF481F8800F001F860481C780007C02800D00BE7FF6C
:202E6000481888000040491A18401E8088001CC049168008E7FFE7FF4813780007C02800F8
:202E8000D1E4E7FFF000FEE8491291006008480D8801480F4A10F7FFFBA949108008F00271
:202EA000F833480FF001FD8A98006800B004BD80431820204B18202003FF0000542820202B
:202EC000542C202054362020543E20205434202042E8202054142020427020205432202004
:202EE00092CC0000B5F0B091461E460C90094255920F9310950C0867D100E08B94021E6301
:202F000046104378990918089006200093014639460791041E489003429FD267930A1E78ED
:202F20009705463E43569D09900E46029906461719A8460C9A10479046219B0F1C7A18ED10
:202F40002800D4F49708920B1C5090079F0A463A435A920D9E09980D18309A104790462161
:202F60001E7F9B0C18F62800DCF51C78990B4281D214463C980A1C41910D9A0F43519B0E20
:202F80004353930E2A00D0111E52980E5C2B5C77542F54731C491C40900EE7F39B0842BB5C
:202FA000460F46039E109A0FD1B6E01C99049A0B4291D00D980342A046239E109A0F9F07C4
:202FC000D1AA98051E40435018289B0B4619E0061C619A0F980D435018309E109B0B90062D
:202FE0001C5F4623E795980B1E431C472B009C02D0061C5998099A0F4633F7FFFF739A0F22
:2030000098014287D206461043789909180991091BE4E770B011BDF0B580B0929011A81074
:203020008001483B900F483B900E483B900D483B900C483B900B2000900AA9098008E7FF95
:20304000A8098800A91088094288DA5DE7FFA80990048800F001FF764932F001F9259000B9
:20306000A81088001E40F001FF6D46019800F001FA2D90089808F000FE4D492BF001F91479
:203080004923F000FCC0900199084608F000FCBBF000FE404920F001F9079901F000FCB330
:2030A000900298084921F001F8FFF000FE334920F001F8FA9902F000FCA69003980821811D
:2030C00005C9F001F8F1F000FE254915F001F8EC9903F000FC989A049007990798119006CE
:2030E0008812009292055880F001F8DE9A05990650889907980AF000FC86900AE7FF980983
:203100001C40A9098008E79B980AB012BD8046C0C0BA3E5C50BC3ED5F5703E8D2B703DAB0A
:20312000A6BF3BE30FDB40C950BCBED5000040402B70BDABB57022FF05D54A3B460B4013AE
:2031400042ABD802400242AAD902F000FC5CBD70247F05E442A1D102F7FFF884BD700FC674
:203160000FCC006419A42A00D00B42ABD00E2B00D00142AAD126210107C940084931184098
:20318000BD702C02D3E32C03D118E01942AAD10A482846C0447C7924006444A702012422DB
:2031A000E7D54827BD702000447C7924006444A702010705E7CB200107C0BD70481CBD7084
:2031C000481ABD701AD215D22A1ADD02481D4634E0122900D509231943DB429ADA0520005D
:2031E000E00A4816BD704814BD70F001F96F210107C94388F7FFF8362C00D0A82C02D005F0
:203200002C01D10B210107C94048BD70490EF000FBFA46014806F000FBF1BD70490AF000E1
:20322000FBF24902E79146C0FFFF7FFF0FDBC0490FDB40490FDB3F49CBE4C016CBE44016FA
:203240000FDBBF490FDB3FC9BD2E33BBB5FE2900D0054C3D27002C07D803463EE0032700B4
:20326000E06F46263E08428ED36B97011E43220842184607D00046172807D80046171DC8FF
:2032800090022507483168004780483178012900D10B21012C09D2012200E0034A2D230008
:2032A000609360164B2C601A7001980243A890021E7842794C2868252D00D034462C3408FB
:2032C0001906400E42B4D010462A321046333B08429AD90119F6E7F9682A2301439A18A24B
:2032E0009B0218F3429AD3E6E006682A2301439A9B02429ADBDF46264628F002F9AF42A689
:20330000D0161B3038086829220143D340191A0960284018182F4311390860B93708462874
:20332000F002F852E005480D680047809F01E008462F46389902F001FADD4808680047808B
:2033400037084638BDFE46C00400000054202020544020205448202043102020542420203C
:20336000B5F0B08792022900D100E080460E46041E480847250346384629F001FD671C4862
:2033800021002803460BD00046032E059504D34190011AFA1C51007A9303005E1B921C90BE
:2033A00090009E029106883243EF403A8871403918A558A090051863586050A098055060B4
:2033C000686868596069605888B0403888F1403918225823930518655863502398055060F4
:2033E000685068696051606889304038897140391822582318655867502750636850686983
:203400006051990660689D04360C1EC9D1CA9B03980199002803D02A0048990218099303A0
:2034200088089A0443D24010884B401318255826960618E758E65026980650E06868687B48
:20344000606B607898032801D0118888401088CB40131822582518E658E7502750E56850C6
:20346000687360539B03607031081E9BD1D7B007BDF00000B4FC000C405C0FE407E4B41058
:20348000031D0B2D0056416D005F0D7FD0732401056443252407022434FF42A7D061030B00
:2034A0000B1B0042415B00480D40D0642401056443232407022434FF42A0D0521BC02100C7
:2034C0002700243642ABD10042B2D304417F41491B9241ABE001417F41491E64D0062B0051
:2034E000D1012A00D0020052415BE7EB2C20D2072C16D30A003940A726201B3640F1E00B27
:203500003C20003940A12700E00640A126201B36003D40F5432940A7240105644221D10227
:20352000007F41491E4024001C7F4161240105A44221D0021C4043A1E001086443A1240328
:20354000022434FF1900DD16192442A0D80907CC08490500430108784320BC104321BCFCCE
:203560004770BC0220000FC9020921FF00C91DC90509BCFC477021002000B001BCFC477026
:20358000B580B082492F20008008492F8008492F7008492F8008E7FF482D8800F000FCBA2B
:2035A000482A780007C02800D00BE7FF482688000040492818401E8088001CC0492480087B
:2035C000E7FFE7FF4821780007C02800D1E4E7FF481D8800280ADB07E7FF492320017008C8
:2035E000F000FB3A9001E02A481B88002805DB17E7FF491D20017008481388002800D1033D
:20360000E7FF20009001E01A480F88002801D103E7FF20019001E012F000FB1E9001E00E2B
:20362000F001FC54490D20017008490D7008480DF002F8D8E7FFE7FF20009001E7FF980179
:20364000B002BD80542C202054362020543E20205434202042E8202054302020543820205D
:20366000543C2020A0004086543B2020B5B04A361880684A6042780A2A22D8560093A40140
:2036800058E3469F37210000372B000037210000372B0000372B0000372B0000372B000070
:2036A000372B0000372B0000372B0000372B0000372B0000372B0000372B0000372B0000FA
:2036C000372B000037110000372B000037110000372B0000372B0000372B0000372B00000E
:2036E000372B0000372B0000372B0000372B0000372B0000372B0000372B0000372B0000BA
:20370000372B000037110000372B00003711000068032403072443A324010764191BE0030B
:2037200068032403072443A36003690B60C368CB6AC44D0640254C06401C192B62C37A0939
:2037400043116001BDB046C0180400008888FFFD77770002B5F82800D067460448336800F0
:2037600047803C084E3222004631461568302701460243BA18B6360842A1460AD3F44B2D47
:203780004A2B2B07D901189A3A084296D900260042A1D14707C0D0452D00D00A68294039F5
:2037A0004628D00020002E00D1062900D12A2600E00B2E00D0262000783107C94631D0006D
:2037C00021002800D00B460E46054628F001FF462E00D108F002F92018803008E00F25008C
:2037E0002900462FD00E4630F001FF382F00D00DF002F9126833400B188018C03010602888
:20380000462CE00C682021014388E0076820210143C940086832400A188030086020462056
:20382000F001FDD2480468004780BDF854202020544820200400000054242020B5FC000C8F
:20384000405C0FE407E4B41002DD0D54432502D6005F0D7FD060240107E4432524070224C6
:2038600034FF42A7D05002CB0D44432302C200480D40D051240107E443232407022434FF14
:2038800042A0D04119C0B40100180029F001FBD2000FB40100180031F001FBCC0003000CD4
:2038A00000100031F001FBC6000600100029F001FBC1000518762200BC02BC0141554151D1
:2038C00019A441554151248000A4195B415118FF4151D5000064193F4151D402007F41490A
:2038E000E0001C402403022434FF1B00DD14192442A0D80905030AF8054C432000490B09E5
:203900004319BC104321BDFC200021FF00C91DC90509BC104321BDFC21002000B001BDFCD1
:20392000B5F0B08449304A31250103AC6816022B9303439E6016680E4226D105680E4226BB
:20394000D102680E4226D0F6026C7E46699743AF402E19BD619525205D4569D6270343BE41
:20396000403D197561D54D22682E270740372605602E6A466833621368736253602F69C398
:20398000065B0C5B69D5267F023643B518EB61D3C8E897006807970168479702071B0B1B37
:2039A000032DB2AD18ED07330D1B7A009E004335431D9B01431D9B02431D430569904B0D8F
:2039C0004003480D402818C0619068109B034318601068084220D10568084220D102680880
:2039E0004220D0F6B004BDF00204400B0108400B13004040008DFFF0FF72000FB4FC270132
:203A000007FF4079E002B4FC270107FF020C004D0E2DD1032C00D152BCFC4770433C2DFF54
:203A2000D05008A42900D5004264020200430E1BD1042A00D1430008BCFC4770433A2BFF75
:203A4000D04108922800D50042521B5ED50400170022003C4276002B2E19D50600274137BF
:203A600019D2271C1BF7427F40BC2A00D027D50242522701E00027003B010052D5FC00151A
:203A800026804035D00F001526204035432C3280D208001526404035432CD10426010236CE
:203AA00043B2E0001C5B00523302DD082BFFD20B0A5005DB431807FF4338BCFC47702000A2
:203AC000BCFC477000080FC707FF20FF05C04338BCFC4770B510B088482968014829F0008D
:203AE000FF6D482969804929F000FBDEF001FADC46014827F000FF62A90720008008E7FFB9
:203B0000A8078800492388094288DA36E7FFA80788002806DB01E7FFE02FA80790018800B3
:203B20009000211491024341481790041840688049169103F000FBB8F001FAB6990046025E
:203B400048159006F000FF3A9B019A0299039804881B1D9C9405435A18806900F000FBA4B7
:203B6000F001FAA2990546029806F000FF27E7FF98071C40A9078008E7C2B008BD1046C0D1
:203B8000541420209385000041082020000042C8935D0000542A2020934F0000B580B08CD1
:203BA000900BA80A800120009009A9088008E7FFA8088800A90A88094288DA43E7FFA80866
:203BC00090038800F001F9BE4920F000FB6D9001A80A88001E40F001F9B546019801F000C9
:203BE000FC7590079807F000F89521BF0609F000FB5B4917F7FFFF07900299074608F7FF9A
:203C0000FF02F000F8874913F000FB4E9902F7FFFEFA9A0390069906980B900588120092E0
:203C200092045880F000FB409A049905508899069809F7FFFEE89009E7FF98081C40A9088F
:203C40008008E7B59809B00CBD8046C00FDB40C90A3D3ED7D70A3DA3B580B0864825880030
:203C6000F001FB24220092024B23F7FEFE6C46029802460B4921F7FFFBFDF000FD61900543
:203C8000A90420018008E7FFA8048800491C88094288DA10E7FFA80488000042491C5A8867
:203CA0001E925A891A4049175288E7FF98041C40A9048008E7E8481288001E41A80380018E
:203CC00088014810F7FEFF044601480F8001990591018800F001F93646019801F000FBF653
:203CE000F001F8D422004B09F7FEFE2DF001F86CB006BD80542E202000003FF012D0419382
:203D00005436202042C02020542C202000003FE042E82020B5F0B0814928F000FAC5217DBA
:203D200005C9F7FFFE704605F001F9BE4606210046289100F000FE1A2800D0001E764630E8
:203D4000F001F90046014628F7FFFE5821110689F000FAAA4605F001F9A746070A4420315B
:203D600006814628F7FFFE4F46062C00D10097002C00D100462E9C004620F001FB11460174
:203D80004630F7FFFE3B460500A0490D180A580C6856207F05C04629F7FFFE304607462847
:203DA0004631F000FA81460546384621F000FA7C4629F7FFFE28B001BDF046C0F9833E22C0
:203DC00089900000B580B08848209003210091014A1FF001FAA9990198034A1EF001FA909A
:203DE000990198032201920402929202F001F99299019803F001FB10980399044A16F00177
:203E0000FA93980399044A15F001FA7A9A0298039904F001F97F98039904F001FAFD481064
:203E20008800491091058008480F9006F001FCF2990598068809F001FCBD20049007F00194
:203E4000F9DD9807F001FA06B008BD80A00040421280400043182020328040004B182020E3
:203E600054082020542E2020A0004086B082A90170084824784006002800D501E7FFE03FFD
:203E8000A8017800280DD107E7FF491E68082201039243106008E033A8017800280AD1117C
:203EA000E7FF4818784006402800D50AE7FF48156801220103D24311600168004914700821
:203EC000E01EE7FFE7FF480F6801480F400146688001880028FEDC0FE7FF9801466A88132E
:203EE000490A54C8490768082303039B401888121C5243106008E003490220006008E7FF18
:203F0000B0024770541820203FFF00004008202043142020B082A90180084821880028149E
:203F2000DB04E7FF491F20007008E036980146698008E7FF4668880021FF00894288DC2843
:203F4000E7FF46688800004148175A40491788094288DC18E7FF466888000040491218404D
:203F60008840491288094288DD0DE7FF9800490C880A00534A0E52D088081C4080084909E1
:203F800020017008E009E7FF98001C4046698008E7D0490420007008E7FFB002477046C09D
:203FA00054362020543E2020431820205428202042E82020B5F8460420FF05C04621400121
:203FC0004281D10846204621F000F96E4621F7FFFD1A4604E03A2C00DD31230105DA0DE01F
:203FE000D10546184214D10200641E40E7FA387F1E51402143114602401A409125009300BB
:20400000061C462A2C00D00D004E19671BF34631DB00461942B7DC00193D42B7DC0019124D
:204020000864E7EF2900D0029900401118521051084005C01840213F06091844E006006018
:20404000D004F001FD2B212160014C014620BDF800007FC0B580B08A9009A80880012000D0
:204060009007A9068008E7FFA8068800A90888094288DA33E7FFA80690028800F000FF623E
:204080004918F000F9119001A80888001E40F000FF5946019801F000FA19F7FFFE3B4912E9
:2040A000F000F9024911F7FFFCAE9A0290059905980990048812009292035880F000F8F4A2
:2040C0009A039904508899059807F7FFFC9C9007E7FF98061C40A9068008E7C59807B00A50
:2040E000BD8046C00FDB40C9851FBEEB3D713F0AB580B08A9009A808800120009007A906A7
:204100008008E7FFA8068800A90888094288DA36E7FFA80690028800F000FF144919F000DC
:20412000F8C39001A80888001E40F000FF0B46019801F000F9CBF7FFFDED4601207F05C084
:20414000F7FFFC5C213F0609F000F8AE9A0290059905980990048812009292035880F0007F
:20416000F8A39A039904508899059807F7FFFC4B9007E7FF98061C40A9068008E7C2980722
:20418000B00ABD800FDB40C9B580B08A49212001900607809009F000FE399B0698092200FA
:2041A0009208920192000459F000FD0A99069B0898099304060991039302930193004619B4
:2041C000461AF000FD6F990698090409F001F99C9809F001F9C599069809F000FFF9990639
:2041E00098090209F001F9CA99069809F001FA44980921209107F001F9A599079809F001B5
:20420000F9CB99082004F000F91F9809F001FB3EB00ABD80939C0000B580B0889007910681
:20422000A805800220009004E7FF9804A90588094288DA36E7FF200090039002200143C0B1
:204240009001E7FF98012802DC1EE7FF980499011840900098002800D411E7FF9800A90555
:2042600088094288DA0BE7FF9807990000495A4198031840900398021C409002E7FFE7FF22
:2042800098011C409001E7DD98039902F000FC1C99069A0400525288E7FF98041C409004BB
:2042A000E7C3B008BD800000B4FC270107FF0006404ED4012600E000003E020200430E1B64
:2042C000D030433A2BFFD030020C004D0E2DD029433C2DFFD029195B404240504042404C70
:2042E0004061404CB500F000FEA5BC2046AE404240504042404C4061404C002500142C00C7
:20430000D40100643B013480D301330108643B7EDD082BFFD20943BC0A2005DB4318433086
:20432000BCFC47702000BCFC477020FF05C04330BCFC4770B57046040DC0B2C046063E7F02
:204340002895D811287ED819491A4620F7FFFB5B25004629F000FB282800D0262C00D52520
:204360000060D0224C15E0202E804620D001200107C04621F7FFFB474605E017462040B086
:204380000240D012490B4620F7FFFB3D2100F000FB0B2800D0092C00D50348051C4040F01C
:2043A00018244D0541354025E00046254628BD70FFFF007FF2CA71490000FF800000BF80FD
:2043C000B580B0869005A8048001A803700221009102780090012804D83198010081A001E6
:2043E0005840468743F90000440700004415000044230000443100009805A9048809F001D0
:20440000FADA9002E01C9805A9048809F7FFFE709002E0159805A9048809F7FFFE1B9002F8
:20442000E00E9805A9048809F7FEFDF69002E0079805A9048809F7FFFBB19002E000E7FF7D
:204440009802B006BD800000B570B0824602A80170029100210056402800D416E7FF2400B1
:20446000A9015708220343D340184A1758805709078C0EE524FF40AC43A09C0001A4B2E4B8
:2044800040AC432040195088E01AA9017808240F40203808220343D340184A0A58802500C1
:2044A0005749078D0EEE25FF40B543A89D0001ADB2ED40B543284021390840195088E7FFC5
:2044C000B002BD70ED1CE000E400E000B4FC270107FF0006404E0FF607F6020200430E1B6C
:2044E000D02D433A2BFFD02D020C004D0E2DD026433C2DFFD0261B5B200021200864085251
:2045000042A2414042A2D3001B123901D0042A00D0010052D1F440884238D10100403B01A2
:204520003080D3013301E0000040337FDD072BFFD2080A4005DB43184330BCFC4770200082
:20454000BCFC477020FF05C04330BCFC47700000B5F81C45780023002B08D032782F07C2D8
:20456000D10C786A240F40141CE42C12D10B2402572EB2F42E00D4081CEEE00E1C6D1C4A99
:20458000700F4611E01A1CAEE0081D2E78ED9500257F402C9D0001ED192C3412013D0912D5
:2045A00019524D0942AAD00E43D22C00D0055C8D1C4F700D1E644639E7F7463508401C5B70
:2045C000E7CA4628E7C5BDF80FFF0000B580B088491A481B9007F000FC1998072200920526
:2045E00092019200230193060459F000FAE99B0599069807930406099103930293019300D5
:204600004619461AF000FB4E990698070409F000FF7B9807F000FFA499069807F000FDD8B8
:20462000990698070209F000FFA998072102F001F8239807F001F92AB008BD8093A40000EC
:2046400020004000B580B0842009F001F85F200AF001F85C201421029102F000FFAB990292
:204660002015F000FF11230093002001040220314619F000FD67201AF001F83C201BF00199
:20468000F839201EF001F8362038F001F833480790034907F001F92698034906F001F85AA9
:2046A00098034905F001F80EB004BD802000400A0C000040400004004C000440B580B08634
:2046C00048179000F001F82E48169001F001F82A48159002F001F86248149003F001F8B20E
:2046E000200107809004F000FFE148119005F000FFDD9800F000FFF29801F000FFEF98026A
:20470000F001F8409803F001F8919804F000FFC29805F000FFBF2010F001F9AEB006BD8008
:204720000000400A2000400AA00040868000401020004000B580F001F891F001F89BBD80BF
:20474000B40C4B1B004A1AD2D21B0D00030A4310220102121880D3020840031218890A40B7
:204760002900D502220107D2431000490D49223801121A89D40C29FFD20D05C94308BC0C73
:20478000477043DB401A4302D00543D8BC0C47702000BC0C47700FC907C920FF05C04308C0
:2047A000BC0C477046C046C046C046C046C046C00000FFE0B08590042026900099042050CB
:2047C00043489003481668009002E7FF481468009001980199024288D01FE7FF9801990221
:2047E0004288D207E7FF980299011A41980018409000E009480B680099011A409902184195
:20480000980018409000E7FF98019002980099034288D301E7FFE001E7FFE7D7B00547705E
:20482000E018E000E014E000B5704605004122FF06124291D10446284629F7FFF8E4E0109B
:204840002800D4104628F7FFFD7546044629F7FFF8D521BF0609F000F893F001F9122D0067
:20486000D0144604E012210107CE4070F7FFFD6246044629F7FFF8C721BF0609F000F88057
:20488000F001F8FF2D00D000460440744620BD70B5F04B16461D3D08682E240143A6602EC2
:2048A000681E2703033F43BE403818306018681826FF43B0B2C9184060186828432060286F
:2048C000681D2A00D00E480A022107224315601D6802420AD1056802420AD1026802420A0D
:2048E000D0F6BDF007204385601DBDF00110400B0204400BB5F8460468022501461043A8B7
:204900001A402810D3211866380860B0360843A8183737084A0E480F2A07D901181038086A
:2049200091004287D20D783807C0D10A4638F000FE95683043E94008683A400A1880300823
:2049400060304630F000FD409A00432A6022BDF80400000054482020B510F000FB4D2800E1
:20496000D0012000BD102001BD1046C0B510F000FB432800DB012000BD102001BD1046C0AD
:20498000B510F000FB392800DD012000BD102001BD1046C0B510F000FAF32800DA01200082
:2049A000BD102001BD1046C0B510F000FAE92800DC012000BD102001BD100000B083B51EB8
:2049C000AC05C40E9001480F680047804A0E69901C40D00DA9059102480C900032184B0CED
:2049E000A801F7FCFEAB4604480A68004780E004480868004780200043C44620BC1EBC021F
:204A0000B003470854202020531820205AB500005AAD000054242020B580B082200090014F
:204A2000F000FEA4200190000240F000FD3D9801F000FDCEF000FFC8F000FF5E9A002003B2
:204A40000300210AF7FFFF244808F7FEFF692010F000FDCCF000FF5AF000FFBE9801F000FA
:204A6000FD339801F000F98EB002BD8091940000B580B084491148129002F000FDC59802E7
:204A80004910F7FEFDF39802F000FF4A98022100910122019203F000FC6F990198029A03D4
:204AA000F000FAE698029A03210CF000FC65980299032202F000FADCB004BD80928100004D
:204AC000A000408692E40000B51C2900D022084C2900D5004249104240542800D5004240CC
:204AE0002300000A4290D9010052E7FB4290415B4290D3001A804291D2010852E7F6001906
:204B00002C00D50042400064D5004249000200080011BD1C00012000F7FCFAEFBD1C000084
:204B2000B580B082490F48109001F000FF299801490EF000F90398012100F000FCF49801A6
:204B40002115222DF000F888980121010289F000FD69200F2102F7FFFC779801F000FEA1E1
:204B6000B002BD80932D00008000401093920000B580B084900391029803F000FF63466966
:204B80008008A90120008008E7FFA8018800466988094288DA0DE7FF9803A90188095C41DA
:204BA0004806F000FCA1E7FF98011C40A9018008E7EB46688800B004BD8046C0800040103E
:204BC000B510B0849C079C0690039102920193009803490A184099029A0143119A0043118D
:204BE0004A07F000FB7998034906184099069A0743114A05F000FB70B004BD1011040000EA
:204C0000000100131108000000071F1FB5F0B081460668536894899589D090006917695009
:204C2000431C432C433C9B00431801004320010B18F3240902645118781078520089187156
:204C400043024804580B24BF43A34022189A500AB001BDF011100000B580B084900391021B
:204C600092019803490B184099024A0BF000FB349803490A18409901223FF000FB2D990356
:204C80004A071888588922014011F000FB25B004BD8046C011100000FFFF00001114000083
:204CA00011040000B510B0859200460298009C0B9C0A9C099C089C079204AA0370119002E4
:204CC0009301980299014308990743089908430899094308990A4308990B430899047812F9
:204CE00000921889222301D25088B005BD100000B50C004A0D522303021B33FF1AD2D3135E
:204D0000231F1A9AD912468E02C9230107DB431940D12A0BD202321540D0430146732B0018
:204D2000D50042490008BD0C2000BD0C000B200107C02B00D4003801BD0C0000B57022110D
:204D4000021318C258C4250143AC50C4880C788D4325888C432C58C54E08402E4D08402500
:204D6000197450C4798879CB43037A0843186851237E4399401818086050BD7098E7FFFD24
:204D800067180000B510490E4A0E2301055C609068084220D10568084220D102680842208C
:204DA000D0F66810041B43036013680806C0D405680806C0D402680806C0D5F6BD1046C0EE
:204DC0000204400B0104400BB40C2900D416004A0D522303021B33FF1AD2D30F231F1A9A7D
:204DE000D30F02C9230107DB431940D12A0BD202321540D043010008BC0C47702000BC0C80
:204E0000477020001E40BC0C47700000B5F02211021318C2780C4D0B59464F0B40372603A2
:204E2000402619BC26A9063619A45144684C58C52607063643B54034192C50C478486110AA
:204E4000BDF046C008080000FFFC00FFB51C000AD0172300240107E442A0D2000004429412
:204E6000D9010052E7FB4290415B4290D3001A804291D2010852E7F6001900020008001166
:204E8000BD1C00012000F7FCF938BD1CB40800430E1BD00F2BFFD011210701C9185B0FC1D4
:204EA00002C9430B0001074802490B09051B4319BC08477021002000BC0847700001024034
:204EC0000DC900C91DC90509BC084770B580480A88002804DC0FE7FF480788011C498001FA
:204EE0008800004148055A414805800188014805F000FC60E7FFBD8054302020540820208E
:204F0000542E2020A0004086B580B082480988001C40F000F81746014807F7FFFAD79001E0
:204F20004806F7FDFC39480668009901F7FDF8B6B002BD80542E202096804C984B182020BA
:204F400054142020B406229E2800D402D104BC0647704241D404E00000013A010049D5FC52
:204F60003180D3013201E00000490A4905D243112800D502220107D243110008BC06477002
:204F8000B5400042004B085E4316D0010006404ED4001AD0D20420010FC9D1064240E004A1
:204FA000D90320010FC9D000424026FF063642B2D80042B3D90120014240BD40B570480AB7
:204FC0004C0A4284D00C4D0A4E0A42B5D008682A68691C507812009258A247903508E7F487
:204FE000BF00BF00BD7046C093FC000093F000009404000094140000B5400042004B085EC6
:205000004316D0010006404ED4001AD0D20420010FC9D1064240E004D90320010FC9D00063
:20502000424026FF063642B2D80042B3D9002001BD400000B4FC0C020C0B24FF022434FF84
:2050400040204021000C43440015435D0006435E000F43570C320C3B18A818C00432043B65
:20506000250018A1416818C94168BCFC47700000B0869200460A99009201460298019205F4
:20508000AA047010A803700199054B0618C991027800210F40089902781200925088B0062E
:2050A000477046C004440000B50600410E09397FD40D221F1A51D90C46860200220107D2E4
:2050C000431040C846722A00D5004240BD062000BD060002200107C02A00D4001E40BD068D
:2050E000B580F7FFFAEBF7FFFAADF7FFFC95F7FFFCBFF7FFFD15F7FFF847F7FFFA67F7FF41
:20510000FB19F000FC794902229C20005488BD8041D02020B0859200460A990092014602F8
:2051200098019204AA037010A8028001880099047812011218894A025088B005477046C0EF
:20514000120C0000B510B0849C0690039102920193009802990143089900430899064308FD
:2051600021814308990300894A015088B004BD1080044042B580B0824809F000FBF8280BA5
:20518000D10AE7FF4806F000FBD54601A80170017800F7FEFE6BE000E7FFB002BD8046C04E
:2051A00080004010B58020010780F000FBD72806D107E7FF4904200070084804F000FB2A4E
:2051C000E000E7FFBD8046C054382020A0004086B580B0849101460198019103A902700802
:2051E00098034A051880780902C9221F02D2F000F873B004BD8046C011080000B0814601E9
:2052000046687001210056402800D409E7FF46687801201F40012001408849026008E7FFA4
:20522000B0014770E280E000B081460146687001210056402800D409E7FF46687801201F25
:2052400040012001408849026008E7FFB0014770E280E000B0814601466870012100564093
:205260002800D409E7FF46687801201F40012001408849026008E7FFB0014770E100E000F1
:20528000B081460146687001210056402800D409E7FF46687801201F4001200140884902FA
:2052A0006008E7FFB0014770E100E000B40422042800D1022100BC044770D5013208424074
:2052C0000212321F00011E520049D3FC05080B0905124311BC044770B084900391029201F0
:2052E0009803680090009800990143889000980099029A014011430899036008B0044770B5
:20530000B0849200460298009203AA0270119001980199037812011218894A025088B00449
:20532000477046C012080000B0849200460298009203AA02701190019801990378120112CB
:2053400018894A025088B004477046C012040000B081900049052004600898001E40490423
:205360006008490420006008B0014770E010E000E014E000E018E000B0849003A80270012A
:20538000920199034A05188991009B01990078000082588843185088B00447701058000048
:2053A000B402219E2800D405D101BC02477039010040D5FC3080D3013101E00000400A40C5
:2053C00005C94308BC024770B5B06801220143914B06681C2C00D00668254395428DD2029B
:2053E00034084623E7F560846018BDB0431020204808F3808808BF00BF00F000FBBA280032
:20540000D001F7FFFDDB2000F7FBFE782001F000FB6D46C080002020B08391004601980083
:205420009102A90170089802780901091841200902425888230243185088B003477000002A
:205440002800D10121004770B40422040212321F00011E520049D3FC05080B090512431122
:20546000BC044770B5B0460420002B00D008B2D2780D70254295D0041C641C491E5BD1F774
:20548000BDB01C60BDB00000B08290019100980049034308990100894A025088B002477083
:2054A0000080000480044042B580B0824601A80180018801200F02024802F7FFFF0DB002D0
:2054C000BD8046C00104400BB580B0824601A80180018801200102424802F7FFFEFDB00286
:2054E000BD8046C00138400B4A06188068020612D50568020612D50268020612D4F661811A
:20550000477046C011080000B580B082900191009801211102091840990022010412F7FF36
:20552000FEDBB002BD80B580B0829001910098012111020918409900220303D2F7FFFECC99
:20554000B002BD80B082900191009B0099014A03588843185088B002477046C010480000AC
:20556000B081900099004A0458882301021B43185088B001477046C011080000B0829001E5
:2055800091009B0099014A03588843185088B002477046C010880000B082900191009B00EF
:2055A00099014A03588843185088B002477046C010280000B0829001910098002180430872
:2055C000990100894A015088B002477080044042B580B0824601A801700178014802220366
:2055E000F7FFFE7AB002BD800100400BB580B0824601A8017001780148022230F7FFFE6CC5
:20560000B002BD800104400BB510220103121883780C609C784B508378894A015081BD10B3
:20562000110C0000B082900191009B0099014A03588843185088B002477046C010280000BD
:20564000B580B08290019100A80178014802F7FFFF4B9801B002BD80800040104A056813F3
:205660002B00D0064611461A32084283D1F768806008477043102020B0829001466870012F
:205680007800210F40089901220102925088B00247700000B08190009900200102C24802FF
:2056A0005088B001477046C000012600B081900099004A0248025088B00147700804000041
:2056C0000003B100B08290019100980099014A025088B002477046C012D00000B08190005A
:2056E0009900200102C248025088B001477046C000012600B0819000980000814A022081AE
:205700005088B001477046C080044042B0819000980000814A0220005088B001477046C0B1
:2057200080044042B081900099004A0248025088B0014770080400000003B100B0829001B0
:205740009100980099014A025088B002477046C012900000B08290019100980099014A027F
:205760005088B002477046C012900000B081460146687001780049026008B001477046C010
:205780000308400BB08190009900200102C248025088B001477046C000012600B0819000FC
:2057A00099004A0248025088B0014770080400000003B100B08290019100980099014A02E8
:2057C0005088B002477046C018080000B08290019100980099014A025088B002477046C049
:2057E00018080000B081900099004A035888230143185088B001477018040000B081900066
:2058000099004A035888230143185088B001477018040000B081900099004A03588823013C
:2058200043985088B001477018040000B08190009900200102C248025088B001477046C062
:2058400000012600B081900099004A0248025088B0014770080400000003B100B5804A03AF
:2058600048032100F7FFF9D2BD8046C0929C0000A0004042B5804A0348032101F7FFF9C6C4
:20588000BD8046C092B40000A0004042B08190009900201102025888230143185088B001E6
:2058A0004770B08190009900201102025888230143185088B0014770B580B082200F9001DC
:2058C000F7FFFCB29801F7FFFCDBB002BD80B580B08290019901207D00C04348F7FEFF6AF7
:2058E000B002BD80B0829001910098009901229501525088B00247704903680822010212F5
:2059000043906008477046C00108400B490368082201031243106008477046C00104400B7F
:20592000B081900099004A0220015088B001477011080000B0819000980049025840B2C099
:20594000B001477011240000B0829001910098018800990088091A40B0024770B081900087
:205960009800218101495840B2C0B0014770B08190009800218101495840B2C0B00147707A
:20598000B510220103121883780C609C78495081BD10B5102300429AD0035CCC54C41C5B42
:2059A000E7F9BD10B580460B210358421DC14618F000F878BD80B082900146688001208982
:2059C00005C0B002477000004902680822014390600847700108400B490268082210431035
:2059E00060084770013C400B490268082205431060084770E010E000B580207D0200F7FF12
:205A0000FCA7F7FFFFF1BD80B580460A210358414610F000F825BD806828210143C94008D8
:205A20006822400A47700000460B4611461AB580F000F80FBD8021005C421C492A00D1FB50
:205A40001E48477021005C421C492A00D1FB1E4847702300429AD00254C11C5BE7FA4770FD
:205A6000460A2100B580F7FFFFF4BD80B58046012008F7FDFBEBBD801E811F09BF00D2FC4B
:205A800047704605207F05C14620E7FFB08294004C019401BD10BF003A07000048004770DF
:205AA000541C2020B580F7FFFF74BD80B580F7FFFDC7BD80B580F7FFF85BBD80980246296B
:205AC000E0000000B08294004C019401BD10BF0042A9000046014620E0000000B082940074
:205AE0004C019401BD10BF0044CD0000F000F80FE7FEBE004770BE004770BE004770BE002E
:205B00004770BE004770BE004770BE004770BF004770BE004770BE004770BE004770BE00DC
:205B200047704638E7CE4628E7B04620E7CABE004770BE004770E45B4770BE004770BE004C
:205B40004770BE004770BE004770BE004770BE004770BE004770BE004770BE004770BE009D
:205B60004770BE004770BE004770BE004770BE0047702001477000000000000000000000C2
:205B800000003F8000000000FEC43F7F0F893BC9FB113F7F0E903C49F4E63F7FC9B63C9654
:205BA000EC433F7F0AB03CC9E1293F7F49B93CFBD3983F7FC32C3D16C38F3F7FE0073D2F6A
:205BC000B10F3F7FFB2F3D489C183F7F14683D6284AB3F7F2B743D7B6AC73F7F200A3D8AE7
:205BE0004E6D3F7FA9053D962F9D3F7F308C3DA30E583F7FB6803DAFEA9D3F7E3AC33DBC05
:205C0000C46D3F7EBD363DC89BC93F7E3DB93DD570B03F7EBC2E3DE143233F7E38763DEE94
:205C200013243F7EB2733DFAE0B13F7D95023E03ABCC3F7DCF863E0974743F7D08B73E106F
:205C40003AAC3F7D40833E16FE733F7C76DE3E1CBFC93F7CABB63E227EB03F7CDEFC3E2884
:205C60003B283F7C10A23E2FF5313F7B40983E35ACCD3F7B6ECF3E3B61FC3F7B9B373E416B
:205C800014BE3F7BC5C23E47C5163F7AEE603E4D73023F7A15013E541E843F7A39973E5A66
:205CA000C79D3F795C133E606E4E3F797C663E6612983F799A7F3E6CB47B3F78B6513E72FF
:205CC00053F83F78CFCC3E78F1103F77E6E13E7E8BC53F777DC03E8224173F7786CE3E852C
:205CE000BA073F768E933E884D973F7695073E8BDEC63F759A223E8E6D973F759DDD3E9168
:205D0000FA0B3F74A0313E9484223F74A1173E970BDD3F74A0863E9A913F3F739E783E9D36
:205D200014473F739AE53EA094F83F7295C53EA313523F728F123EA68F573F7186C43EA91F
:205D400009083F717CD43EAC80663F70713A3EAFF5733F6F63EF3EB268303F6F54EC3EB54A
:205D6000D89E3F6E442A3EB846BE3F6E31A03EBBB2933F6D1D4A3EBE1C1D3F6D071E3EC1C4
:205D8000835E3F6CEF153EC3E8583F6BD5293EC64B0C3F6BB9533EC9AB7B3F6A9B8B3ECC73
:205DA00009A73F6A7BCA3ECF65913F695A093ED2BF3C3F6836413ED516A83F68106B3ED805
:205DC0006BD83F67E8803EDABECC3F66BE793EDD0F883F66924F3EE05E0B3F6563FA3EE313
:205DE000AA593F6433753EE6F4733F6300B73EE93C5A3F63CBBB3EEB82103F6294793EEEF7
:205E0000C5983F615AEA3EF106F23F611F073EF446213F60E0CB3EF683273F5FA02D3EF9F1
:205E2000BE053F5E5D273EFCF6BE3F5D17B23EFF2D533F5DE7E43F0061C73F5C42B13F02D1
:205E4000941A3F5B9C3D3F03C4503F5AF4843F04F26A3F594B823F061E6A3F59A1363F0734
:205E600048533F58F59B3F0870263F5748AD3F0A95E53F569A6B3F0BB9933F55EAD03F0C6C
:205E8000DB313F5439DA3F0EFAC33F5387843F0F18493F53D3CD3F1033C63F521EB03F12D0
:205EA0004D3D3F51682A3F1364AF3F50B0393F147A1F3F4FF6D93F158D903F4E3C073F1779
:205EC0009F023F4D7FC03F18AE793F4CC2003F19BBF83F4B02C63F1BC77F3F4A420C3F1C5C
:205EE000D1123F497FD13F1DD8B33F48BC123F1EDE653F47F6CB3F1FE22A3F462FF93F214D
:205F0000E4033F4567993F22E3F53F449DA93F23E2003F43D2253F24DE293F42050A3F26F8
:205F2000D8703F4136563F27D0DA3F4066053F28C7673F3F94153F29BC1B3F3EC0823F2AF0
:205F4000AEF93F3DEB4A3F2BA0033F3C14693F2D8F3B3F3B3BDE3F2E7CA43F3A61A53F2FA1
:205F600068423F3985BB3F3052163F38A81D3F313A233F37C8C93F32206C3F36E7BC3F3351
:205F800004F33F3504F33F35E7BC3F33206C3F36C8C93F323A233F37A81D3F3152163F382C
:205FA00085BB3F3068423F3961A53F2F7CA43F3A3BDE3F2E8F3B3F3B14693F2DA0033F3C32
:205FC000EB4A3F2BAEF93F3DC0823F2ABC1B3F3E94153F29C7673F3F66053F28D0DA3F4048
:205FE00036563F27D8703F41050A3F26DE293F42D2253F24E2003F439DA93F23E3F53F442A
:2060000067993F22E4033F452FF93F21E22A3F46F6CB3F1FDE653F47BC123F1ED8B33F4876
:206020007FD13F1DD1123F49420C3F1CC77F3F4A02C63F1BBBF83F4BC2003F19AE793F4CA6
:206040007FC03F189F023F4D3C073F178D903F4EF6D93F157A1F3F4FB0393F1464AF3F5012
:20606000682A3F134D3D3F511EB03F1233C63F52D3CD3F1018493F5387843F0FFAC33F53EF
:2060800039DA3F0EDB313F54EAD03F0CB9933F559A6B3F0B95E53F5648AD3F0A70263F5754
:2060A000F59B3F0848533F58A1363F071E6A3F594B823F06F26A3F59F4843F04C4503F5A2C
:2060C0009C3D3F03941A3F5B42B13F0261C73F5CE7E43F002D533F5D17B23EFFF6BE3F5DEA
:2060E0005D273EFCBE053F5EA02D3EF983273F5FE0CB3EF646213F601F073EF406F23F6161
:206100005AEA3EF1C5983F6194793EEE82103F62CBBB3EEB3C5A3F6300B73EE9F4733F63D5
:2061200033753EE6AA593F6463FA3EE35E0B3F65924F3EE00F883F66BE793EDDBECC3F66A6
:20614000E8803EDA6BD83F67106B3ED816A83F6836413ED5BF3C3F685A093ED265913F69A3
:206160007BCA3ECF09A73F6A9B8B3ECCAB7B3F6AB9533EC94B0C3F6BD5293EC6E8583F6B75
:20618000EF153EC3835E3F6C071E3EC11C1D3F6D1D4A3EBEB2933F6D31A03EBB46BE3F6E96
:2061A000442A3EB8D89E3F6E54EC3EB568303F6F63EF3EB2F5733F6F713A3EAF80663F705A
:2061C0007CD43EAC09083F7186C43EA98F573F718F123EA613523F7295C53EA394F83F72EA
:2061E0009AE53EA014473F739E783E9D913F3F73A0863E9A0BDD3F74A1173E9784223F7443
:20620000A0313E94FA0B3F749DDD3E916D973F759A223E8EDEC63F7595073E8B4D973F7644
:206220008E933E88BA073F7686CE3E8524173F777DC03E828BC53F77E6E13E7EF1103F77BC
:20624000CFCC3E7853F83F78B6513E72B47B3F789A7F3E6C12983F797C663E666E4E3F792F
:206260005C133E60C79D3F7939973E5A1E843F7A15013E5473023F7AEE603E4DC5163F7AEF
:20628000C5C23E4714BE3F7B9B373E4161FC3F7B6ECF3E3BACCD3F7B40983E35F5313F7BEA
:2062A00010A23E2F3B283F7CDEFC3E287EB03F7CABB63E22BFC93F7C76DE3E1CFE733F7C9A
:2062C00040833E163AAC3F7D08B73E1074743F7DCF863E09ABCC3F7D95023E03E0B13F7D60
:2062E000B2733DFA13243F7E38763DEE43233F7EBC2E3DE170B03F7E3DB93DD59BC93F7E44
:20630000BD363DC8C46D3F7E3AC33DBCEA9D3F7EB6803DAF0E583F7F308C3DA32F9D3F7FF1
:20632000A9053D964E6D3F7F200A3D8A6AC73F7F2B743D7B84AB3F7F14683D629C183F7FB2
:20634000FB2F3D48B10F3F7FE0073D2FC38F3F7FC32C3D16D3983F7F49B93CFBE1293F7F41
:206360000AB03CC9EC433F7FC9B63C96F4E63F7F0E903C49FB113F7F0F893BC9FEC43F7F7F
:206380000000000000003F800F89BBC9FEC43F7F0E90BC49FB113F7FC9B6BC96F4E63F7FCC
:2063A0000AB0BCC9EC433F7F49B9BCFBE1293F7FC32CBD16D3983F7FE007BD2FC38F3F7F62
:2063C000FB2FBD48B10F3F7F1468BD629C183F7F2B74BD7B84AB3F7F200ABD8A6AC73F7FDF
:2063E000A905BD964E6D3F7F308CBDA32F9D3F7FB680BDAF0E583F7F3AC3BDBCEA9D3F7EFD
:20640000BD36BDC8C46D3F7E3DB9BDD59BC93F7EBC2EBDE170B03F7E3876BDEE43233F7E8C
:20642000B273BDFA13243F7E9502BE03E0B13F7DCF86BE09ABCC3F7D08B7BE1074743F7D67
:206440004083BE163AAC3F7D76DEBE1CFE733F7CABB6BE22BFC93F7CDEFCBE287EB03F7C7C
:2064600010A2BE2F3B283F7C4098BE35F5313F7B6ECFBE3BACCD3F7B9B37BE4161FC3F7B63
:20648000C5C2BE4714BE3F7BEE60BE4DC5163F7A1501BE5473023F7A3997BE5A1E843F7A5E
:2064A0005C13BE60C79D3F797C66BE666E4E3F799A7FBE6C12983F79B651BE72B47B3F78F7
:2064C000CFCCBE7853F83F78E6E1BE7EF1103F777DC0BE828BC53F7786CEBE8524173F7724
:2064E0008E93BE88BA073F769507BE8B4D973F769A22BE8EDEC63F759DDDBE916D973F7560
:20650000A031BE94FA0B3F74A117BE9784223F74A086BE9A0BDD3F749E78BE9D913F3F732E
:206520009AE5BEA014473F7395C5BEA394F83F728F12BEA613523F7286C4BEA98F573F7117
:206540007CD4BEAC09083F71713ABEAF80663F7063EFBEB2F5733F6F54ECBEB568303F6F42
:20656000442ABEB8D89E3F6E31A0BEBB46BE3F6E1D4ABEBEB2933F6D071EBEC11C1D3F6DBC
:20658000EF15BEC3835E3F6CD529BEC6E8583F6BB953BEC94B0C3F6B9B8BBECCAB7B3F6A6B
:2065A0007BCABECF09A73F6A5A09BED265913F693641BED5BF3C3F68106BBED816A83F68FD
:2065C000E880BEDA6BD83F67BE79BEDDBECC3F66924FBEE00F883F6663FABEE35E0B3F650B
:2065E0003375BEE6AA593F6400B7BEE9F4733F63CBBBBEEB3C5A3F639479BEEE82103F62EF
:206600005AEABEF1C5983F611F07BEF406F23F61E0CBBEF646213F60A02DBEF983273F5FE9
:206620005D27BEFCBE053F5E17B2BEFFF6BE3F5DE7E4BF002D533F5D42B1BF0261C73F5CC9
:206640009C3DBF03941A3F5BF484BF04C4503F5A4B82BF06F26A3F59A136BF071E6A3F592C
:20666000F59BBF0848533F5848ADBF0A70263F579A6BBF0B95E53F56EAD0BF0CB9933F5564
:2066800039DABF0EDB313F548784BF0FFAC33F53D3CDBF1018493F531EB0BF1233C63F52C8
:2066A000682ABF134D3D3F51B039BF1464AF3F50F6D9BF157A1F3F4F3C07BF178D903F4E71
:2066C0007FC0BF189F023F4DC200BF19AE793F4C02C6BF1BBBF83F4B420CBF1CC77F3F4A54
:2066E0007FD1BF1DD1123F49BC12BF1ED8B33F48F6CBBF1FDE653F472FF9BF21E22A3F4645
:206700006799BF22E4033F459DA9BF23E3F53F44D225BF24E2003F43050ABF26DE293F42F0
:206720003656BF27D8703F416605BF28D0DA3F409415BF29C7673F3FC082BF2ABC1B3F3EE8
:20674000EB4ABF2BAEF93F3D1469BF2DA0033F3C3BDEBF2E8F3B3F3B61A5BF2F7CA43F3A99
:2067600085BBBF3068423F39A81DBF3152163F38C8C9BF323A233F37E7BCBF33206C3F3649
:2067800004F3BF3504F33F35206CBF36E7BC3F333A23BF37C8C93F325216BF38A81D3F3124
:2067A0006842BF3985BB3F307CA4BF3A61A53F2F8F3BBF3B3BDE3F2EA003BF3C14693F2D2A
:2067C000AEF9BF3DEB4A3F2BBC1BBF3EC0823F2AC767BF3F94153F29D0DABF4066053F2840
:2067E000D870BF4136563F27DE29BF42050A3F26E200BF43D2253F24E3F5BF449DA93F2322
:20680000E403BF4567993F22E22ABF462FF93F21DE65BF47F6CB3F1FD8B3BF48BC123F1E6E
:20682000D112BF497FD13F1DC77FBF4A420C3F1CBBF8BF4B02C63F1BAE79BF4CC2003F199E
:206840009F02BF4D7FC03F188D90BF4E3C073F177A1FBF4FF6D93F1564AFBF50B0393F140A
:206860004D3DBF51682A3F1333C6BF521EB03F121849BF53D3CD3F10FAC3BF5387843F0FE7
:20688000DB31BF5439DA3F0EB993BF55EAD03F0C95E5BF569A6B3F0B7026BF5748AD3F0A4C
:2068A0004853BF58F59B3F081E6ABF59A1363F07F26ABF594B823F06C450BF5AF4843F0424
:2068C000941ABF5B9C3D3F0361C7BF5C42B13F022D53BF5DE7E43F00F6BEBF5D17B23EFFE2
:2068E000BE05BF5E5D273EFC8327BF5FA02D3EF94621BF60E0CB3EF606F2BF611F073EF459
:20690000C598BF615AEA3EF18210BF6294793EEE3C5ABF63CBBB3EEBF473BF6300B73EE9CD
:20692000AA59BF6433753EE65E0BBF6563FA3EE30F88BF66924F3EE0BECCBF66BE793EDD9E
